{
  "_format": "hh-sol-artifact-1",
  "contractName": "CoffeeTraceability",
  "sourceName": "contracts/CoffeeTraceability.sol",
  "abi": [
    {
      "inputs": [],
      "stateMutability": "nonpayable",
      "type": "constructor"
    },
    {
      "inputs": [],
      "name": "AccessControlBadConfirmation",
      "type": "error"
    },
    {
      "inputs": [
        {
          "internalType": "address",
          "name": "account",
          "type": "address"
        },
        {
          "internalType": "bytes32",
          "name": "neededRole",
          "type": "bytes32"
        }
      ],
      "name": "AccessControlUnauthorizedAccount",
      "type": "error"
    },
    {
      "anonymous": false,
      "inputs": [
        {
          "indexed": true,
          "internalType": "bytes32",
          "name": "role",
          "type": "bytes32"
        },
        {
          "indexed": true,
          "internalType": "bytes32",
          "name": "previousAdminRole",
          "type": "bytes32"
        },
        {
          "indexed": true,
          "internalType": "bytes32",
          "name": "newAdminRole",
          "type": "bytes32"
        }
      ],
      "name": "RoleAdminChanged",
      "type": "event"
    },
    {
      "anonymous": false,
      "inputs": [
        {
          "indexed": true,
          "internalType": "bytes32",
          "name": "role",
          "type": "bytes32"
        },
        {
          "indexed": true,
          "internalType": "address",
          "name": "account",
          "type": "address"
        },
        {
          "indexed": true,
          "internalType": "address",
          "name": "sender",
          "type": "address"
        }
      ],
      "name": "RoleGranted",
      "type": "event"
    },
    {
      "anonymous": false,
      "inputs": [
        {
          "indexed": true,
          "internalType": "bytes32",
          "name": "role",
          "type": "bytes32"
        },
        {
          "indexed": true,
          "internalType": "address",
          "name": "account",
          "type": "address"
        },
        {
          "indexed": true,
          "internalType": "address",
          "name": "sender",
          "type": "address"
        }
      ],
      "name": "RoleRevoked",
      "type": "event"
    },
    {
      "inputs": [],
      "name": "DEFAULT_ADMIN_ROLE",
      "outputs": [
        {
          "internalType": "bytes32",
          "name": "",
          "type": "bytes32"
        }
      ],
      "stateMutability": "view",
      "type": "function"
    },
    {
      "inputs": [
        {
          "internalType": "uint256",
          "name": "",
          "type": "uint256"
        }
      ],
      "name": "coffeeLots",
      "outputs": [
        {
          "internalType": "uint256",
          "name": "id",
          "type": "uint256"
        },
        {
          "internalType": "string",
          "name": "qrCodeIdentifier",
          "type": "string"
        },
        {
          "internalType": "enum CoffeeTraceability.LotStatus",
          "name": "status",
          "type": "uint8"
        },
        {
          "internalType": "address",
          "name": "currentActor",
          "type": "address"
        },
        {
          "internalType": "address",
          "name": "farmerAddress",
          "type": "address"
        },
        {
          "components": [
            {
              "internalType": "string",
              "name": "gpsCoordinates",
              "type": "string"
            },
            {
              "internalType": "uint256",
              "name": "elevation",
              "type": "uint256"
            },
            {
              "internalType": "string",
              "name": "coffeeVariety",
              "type": "string"
            },
            {
              "internalType": "string",
              "name": "cultivationMethod",
              "type": "string"
            },
            {
              "internalType": "string",
              "name": "ipfsEvidenceHash",
              "type": "string"
            }
          ],
          "internalType": "struct CoffeeTraceability.FarmData",
          "name": "farmDetails",
          "type": "tuple"
        },
        {
          "components": [
            {
              "internalType": "uint256",
              "name": "harvestDate",
              "type": "uint256"
            },
            {
              "internalType": "string",
              "name": "harvestMethod",
              "type": "string"
            }
          ],
          "internalType": "struct CoffeeTraceability.HarvestData",
          "name": "harvestDetails",
          "type": "tuple"
        },
        {
          "components": [
            {
              "internalType": "string",
              "name": "processMethod",
              "type": "string"
            },
            {
              "internalType": "uint256",
              "name": "fermentationTime",
              "type": "uint256"
            },
            {
              "internalType": "uint256",
              "name": "moistureContent",
              "type": "uint256"
            },
            {
              "internalType": "uint256",
              "name": "impurityRate",
              "type": "uint256"
            },
            {
              "internalType": "string",
              "name": "ipfsReportHash",
              "type": "string"
            }
          ],
          "internalType": "struct CoffeeTraceability.ProcessingData",
          "name": "processingDetails",
          "type": "tuple"
        },
        {
          "components": [
            {
              "internalType": "string",
              "name": "roastProfile",
              "type": "string"
            },
            {
              "internalType": "uint256",
              "name": "roastBatchSize",
              "type": "uint256"
            },
            {
              "internalType": "uint256",
              "name": "cuppingScore",
              "type": "uint256"
            },
            {
              "internalType": "string",
              "name": "qualityGrade",
              "type": "string"
            }
          ],
          "internalType": "struct CoffeeTraceability.RoastingData",
          "name": "roastingDetails",
          "type": "tuple"
        },
        {
          "components": [
            {
              "internalType": "string",
              "name": "containerId",
              "type": "string"
            },
            {
              "internalType": "string",
              "name": "exportPort",
              "type": "string"
            },
            {
              "internalType": "string",
              "name": "certifications",
              "type": "string"
            },
            {
              "internalType": "uint256",
              "name": "exportTimestamp",
              "type": "uint256"
            }
          ],
          "internalType": "struct CoffeeTraceability.ExportData",
          "name": "exportDetails",
          "type": "tuple"
        }
      ],
      "stateMutability": "view",
      "type": "function"
    },
    {
      "inputs": [
        {
          "internalType": "bytes32",
          "name": "role",
          "type": "bytes32"
        }
      ],
      "name": "getRoleAdmin",
      "outputs": [
        {
          "internalType": "bytes32",
          "name": "",
          "type": "bytes32"
        }
      ],
      "stateMutability": "view",
      "type": "function"
    },
    {
      "inputs": [
        {
          "internalType": "bytes32",
          "name": "role",
          "type": "bytes32"
        },
        {
          "internalType": "address",
          "name": "account",
          "type": "address"
        }
      ],
      "name": "grantRole",
      "outputs": [],
      "stateMutability": "nonpayable",
      "type": "function"
    },
    {
      "inputs": [
        {
          "internalType": "bytes32",
          "name": "role",
          "type": "bytes32"
        },
        {
          "internalType": "address",
          "name": "account",
          "type": "address"
        }
      ],
      "name": "hasRole",
      "outputs": [
        {
          "internalType": "bool",
          "name": "",
          "type": "bool"
        }
      ],
      "stateMutability": "view",
      "type": "function"
    },
    {
      "inputs": [
        {
          "internalType": "string",
          "name": "",
          "type": "string"
        }
      ],
      "name": "qrToLotId",
      "outputs": [
        {
          "internalType": "uint256",
          "name": "",
          "type": "uint256"
        }
      ],
      "stateMutability": "view",
      "type": "function"
    },
    {
      "inputs": [
        {
          "internalType": "bytes32",
          "name": "role",
          "type": "bytes32"
        },
        {
          "internalType": "address",
          "name": "callerConfirmation",
          "type": "address"
        }
      ],
      "name": "renounceRole",
      "outputs": [],
      "stateMutability": "nonpayable",
      "type": "function"
    },
    {
      "inputs": [
        {
          "internalType": "bytes32",
          "name": "role",
          "type": "bytes32"
        },
        {
          "internalType": "address",
          "name": "account",
          "type": "address"
        }
      ],
      "name": "revokeRole",
      "outputs": [],
      "stateMutability": "nonpayable",
      "type": "function"
    },
    {
      "inputs": [
        {
          "internalType": "bytes4",
          "name": "interfaceId",
          "type": "bytes4"
        }
      ],
      "name": "supportsInterface",
      "outputs": [
        {
          "internalType": "bool",
          "name": "",
          "type": "bool"
        }
      ],
      "stateMutability": "view",
      "type": "function"
    }
  ],
  "bytecode": "0x608060405234801561001057600080fd5b5061001c600033610022565b506100ce565b6000828152602081815260408083206001600160a01b038516845290915281205460ff166100c4576000838152602081815260408083206001600160a01b03861684529091529020805460ff1916600117905561007c3390565b6001600160a01b0316826001600160a01b0316847f2f8788117e7eff1d82e926ec794901d17c78024a50270940304540a733656f0d60405160405180910390a45060016100c8565b5060005b92915050565b611075806100dd6000396000f3fe608060405234801561001057600080fd5b50600436106100935760003560e01c806362e10d7b1161006657806362e10d7b1461011957806389152ed11461014257806391d148541461016d578063a217fddf14610180578063d547741f1461018857600080fd5b806301ffc9a714610098578063248a9ca3146100c05780632f2ff15d146100f157806336568abe14610106575b600080fd5b6100ab6100a6366004610c10565b61019b565b60405190151581526020015b60405180910390f35b6100e36100ce366004610c41565b60009081526020819052604090206001015490565b6040519081526020016100b7565b6101046100ff366004610c5a565b6101d2565b005b610104610114366004610c5a565b6101fd565b61012c610127366004610c41565b610235565b6040516100b79a99989796959493929190610e65565b6100e3610150366004610f54565b805160208183018101805160038252928201919093012091525481565b6100ab61017b366004610c5a565b610a77565b6100e3600081565b610104610196366004610c5a565b610aa0565b60006001600160e01b03198216637965db0b60e01b14806101cc57506301ffc9a760e01b6001600160e01b03198316145b92915050565b6000828152602081905260409020600101546101ed81610ac5565b6101f78383610ad2565b50505050565b6001600160a01b03811633146102265760405163334bd91960e11b815260040160405180910390fd5b6102308282610b64565b505050565b6002602052600090815260409020805460018201805491929161025790611005565b80601f016020809104026020016040519081016040528092919081815260200182805461028390611005565b80156102d05780601f106102a5576101008083540402835291602001916102d0565b820191906000526020600020905b8154815290600101906020018083116102b357829003601f168201915b50505050600283015460038401546040805160a08101909152600486018054959660ff8516966101009095046001600160a01b039081169650909316938290829061031a90611005565b80601f016020809104026020016040519081016040528092919081815260200182805461034690611005565b80156103935780601f1061036857610100808354040283529160200191610393565b820191906000526020600020905b81548152906001019060200180831161037657829003601f168201915b50505050508152602001600182015481526020016002820180546103b690611005565b80601f01602080910402602001604051908101604052809291908181526020018280546103e290611005565b801561042f5780601f106104045761010080835404028352916020019161042f565b820191906000526020600020905b81548152906001019060200180831161041257829003601f168201915b5050505050815260200160038201805461044890611005565b80601f016020809104026020016040519081016040528092919081815260200182805461047490611005565b80156104c15780601f10610496576101008083540402835291602001916104c1565b820191906000526020600020905b8154815290600101906020018083116104a457829003601f168201915b505050505081526020016004820180546104da90611005565b80601f016020809104026020016040519081016040528092919081815260200182805461050690611005565b80156105535780601f1061052857610100808354040283529160200191610553565b820191906000526020600020905b81548152906001019060200180831161053657829003601f168201915b50505050508152505090806009016040518060400160405290816000820154815260200160018201805461058690611005565b80601f01602080910402602001604051908101604052809291908181526020018280546105b290611005565b80156105ff5780601f106105d4576101008083540402835291602001916105ff565b820191906000526020600020905b8154815290600101906020018083116105e257829003601f168201915b5050505050815250509080600b016040518060a001604052908160008201805461062890611005565b80601f016020809104026020016040519081016040528092919081815260200182805461065490611005565b80156106a15780601f10610676576101008083540402835291602001916106a1565b820191906000526020600020905b81548152906001019060200180831161068457829003601f168201915b505050505081526020016001820154815260200160028201548152602001600382015481526020016004820180546106d890611005565b80601f016020809104026020016040519081016040528092919081815260200182805461070490611005565b80156107515780601f1061072657610100808354040283529160200191610751565b820191906000526020600020905b81548152906001019060200180831161073457829003601f168201915b505050505081525050908060100160405180608001604052908160008201805461077a90611005565b80601f01602080910402602001604051908101604052809291908181526020018280546107a690611005565b80156107f35780601f106107c8576101008083540402835291602001916107f3565b820191906000526020600020905b8154815290600101906020018083116107d657829003601f168201915b50505050508152602001600182015481526020016002820154815260200160038201805461082090611005565b80601f016020809104026020016040519081016040528092919081815260200182805461084c90611005565b80156108995780601f1061086e57610100808354040283529160200191610899565b820191906000526020600020905b81548152906001019060200180831161087c57829003601f168201915b50505050508152505090806014016040518060800160405290816000820180546108c290611005565b80601f01602080910402602001604051908101604052809291908181526020018280546108ee90611005565b801561093b5780601f106109105761010080835404028352916020019161093b565b820191906000526020600020905b81548152906001019060200180831161091e57829003601f168201915b5050505050815260200160018201805461095490611005565b80601f016020809104026020016040519081016040528092919081815260200182805461098090611005565b80156109cd5780601f106109a2576101008083540402835291602001916109cd565b820191906000526020600020905b8154815290600101906020018083116109b057829003601f168201915b505050505081526020016002820180546109e690611005565b80601f0160208091040260200160405190810160405280929190818152602001828054610a1290611005565b8015610a5f5780601f10610a3457610100808354040283529160200191610a5f565b820191906000526020600020905b815481529060010190602001808311610a4257829003601f168201915b5050505050815260200160038201548152505090508a565b6000918252602082815260408084206001600160a01b0393909316845291905290205460ff1690565b600082815260208190526040902060010154610abb81610ac5565b6101f78383610b64565b610acf8133610bcf565b50565b6000610ade8383610a77565b610b5c576000838152602081815260408083206001600160a01b03861684529091529020805460ff19166001179055610b143390565b6001600160a01b0316826001600160a01b0316847f2f8788117e7eff1d82e926ec794901d17c78024a50270940304540a733656f0d60405160405180910390a45060016101cc565b5060006101cc565b6000610b708383610a77565b15610b5c576000838152602081815260408083206001600160a01b0386168085529252808320805460ff1916905551339286917ff6391f5c32d9c69d2a47ea670b442974b53935d1edc7fd64eb21e047a839171b9190a45060016101cc565b610bd98282610a77565b610c0c5760405163e2517d3f60e01b81526001600160a01b03821660048201526024810183905260440160405180910390fd5b5050565b600060208284031215610c2257600080fd5b81356001600160e01b031981168114610c3a57600080fd5b9392505050565b600060208284031215610c5357600080fd5b5035919050565b60008060408385031215610c6d57600080fd5b8235915060208301356001600160a01b0381168114610c8b57600080fd5b809150509250929050565b6000815180845260005b81811015610cbc57602081850181015186830182015201610ca0565b506000602082860101526020601f19601f83011685010191505092915050565b6000815160a08452610cf160a0850182610c96565b90506020830151602085015260408301518482036040860152610d148282610c96565b91505060608301518482036060860152610d2e8282610c96565b91505060808301518482036080860152610d488282610c96565b95945050505050565b805182526000602082015160406020850152610d706040850182610c96565b949350505050565b6000815160a08452610d8d60a0850182610c96565b905060208301516020850152604083015160408501526060830151606085015260808301518482036080860152610d488282610c96565b6000815160808452610dd96080850182610c96565b9050602083015160208501526040830151604085015260608301518482036060860152610d488282610c96565b6000815160808452610e1b6080850182610c96565b905060208301518482036020860152610e348282610c96565b91505060408301518482036040860152610e4e8282610c96565b915050606083015160608501528091505092915050565b60006101408c8352806020840152610e7f8184018d610c96565b905060078b10610e9f57634e487b7160e01b600052602160045260246000fd5b8a6040840152610eba606084018b6001600160a01b03169052565b6001600160a01b038916608084015282810360a0840152610edb8189610cdc565b905082810360c0840152610eef8188610d51565b905082810360e0840152610f038187610d78565b9050828103610100840152610f188186610dc4565b9050828103610120840152610f2d8185610e06565b9d9c50505050505050505050505050565b634e487b7160e01b600052604160045260246000fd5b600060208284031215610f6657600080fd5b813567ffffffffffffffff80821115610f7e57600080fd5b818401915084601f830112610f9257600080fd5b813581811115610fa457610fa4610f3e565b604051601f8201601f19908116603f01168101908382118183101715610fcc57610fcc610f3e565b81604052828152876020848701011115610fe557600080fd5b826020860160208301376000928101602001929092525095945050505050565b600181811c9082168061101957607f821691505b60208210810361103957634e487b7160e01b600052602260045260246000fd5b5091905056fea26469706673582212206a8838ca843b338a3005019c676e9146b10bb10f38eb099fd63f715a310ddf8264736f6c63430008140033",
  "linkReferences": {},
  "deployedLinkReferences": {}
}