{
  "_format": "hh-sol-artifact-1",
  "contractName": "CoffeeTraceability",
  "sourceName": "contracts/CoffeeTraceability.sol",
  "abi": [
    {
      "inputs": [],
      "stateMutability": "nonpayable",
      "type": "constructor"
    },
    {
      "inputs": [],
      "name": "AccessControlBadConfirmation",
      "type": "error"
    },
    {
      "inputs": [
        {
          "internalType": "address",
          "name": "account",
          "type": "address"
        },
        {
          "internalType": "bytes32",
          "name": "neededRole",
          "type": "bytes32"
        }
      ],
      "name": "AccessControlUnauthorizedAccount",
      "type": "error"
    },
    {
      "anonymous": false,
      "inputs": [
        {
          "indexed": true,
          "internalType": "uint256",
          "name": "lotId",
          "type": "uint256"
        },
        {
          "indexed": true,
          "internalType": "address",
          "name": "actor",
          "type": "address"
        },
        {
          "indexed": false,
          "internalType": "string",
          "name": "processMethod",
          "type": "string"
        },
        {
          "indexed": false,
          "internalType": "uint256",
          "name": "fermentationTime",
          "type": "uint256"
        },
        {
          "indexed": false,
          "internalType": "uint256",
          "name": "moistureContent",
          "type": "uint256"
        },
        {
          "indexed": false,
          "internalType": "uint256",
          "name": "impurityRate",
          "type": "uint256"
        },
        {
          "indexed": false,
          "internalType": "string",
          "name": "ipfsReportHash",
          "type": "string"
        }
      ],
      "name": "LotProcessed",
      "type": "event"
    },
    {
      "anonymous": false,
      "inputs": [
        {
          "indexed": true,
          "internalType": "uint256",
          "name": "lotId",
          "type": "uint256"
        },
        {
          "indexed": true,
          "internalType": "address",
          "name": "actor",
          "type": "address"
        },
        {
          "indexed": false,
          "internalType": "string",
          "name": "reason",
          "type": "string"
        }
      ],
      "name": "LotRejected",
      "type": "event"
    },
    {
      "anonymous": false,
      "inputs": [
        {
          "indexed": true,
          "internalType": "uint256",
          "name": "lotId",
          "type": "uint256"
        },
        {
          "indexed": false,
          "internalType": "enum CoffeeTraceability.LotStatus",
          "name": "newStatus",
          "type": "uint8"
        },
        {
          "indexed": true,
          "internalType": "address",
          "name": "actor",
          "type": "address"
        }
      ],
      "name": "LotStatusUpdated",
      "type": "event"
    },
    {
      "anonymous": false,
      "inputs": [
        {
          "indexed": true,
          "internalType": "bytes32",
          "name": "role",
          "type": "bytes32"
        },
        {
          "indexed": true,
          "internalType": "bytes32",
          "name": "previousAdminRole",
          "type": "bytes32"
        },
        {
          "indexed": true,
          "internalType": "bytes32",
          "name": "newAdminRole",
          "type": "bytes32"
        }
      ],
      "name": "RoleAdminChanged",
      "type": "event"
    },
    {
      "anonymous": false,
      "inputs": [
        {
          "indexed": true,
          "internalType": "bytes32",
          "name": "role",
          "type": "bytes32"
        },
        {
          "indexed": true,
          "internalType": "address",
          "name": "account",
          "type": "address"
        },
        {
          "indexed": true,
          "internalType": "address",
          "name": "sender",
          "type": "address"
        }
      ],
      "name": "RoleGranted",
      "type": "event"
    },
    {
      "anonymous": false,
      "inputs": [
        {
          "indexed": true,
          "internalType": "bytes32",
          "name": "role",
          "type": "bytes32"
        },
        {
          "indexed": true,
          "internalType": "address",
          "name": "account",
          "type": "address"
        },
        {
          "indexed": true,
          "internalType": "address",
          "name": "sender",
          "type": "address"
        }
      ],
      "name": "RoleRevoked",
      "type": "event"
    },
    {
      "inputs": [],
      "name": "COOPERATIVE_ROLE",
      "outputs": [
        {
          "internalType": "bytes32",
          "name": "",
          "type": "bytes32"
        }
      ],
      "stateMutability": "view",
      "type": "function"
    },
    {
      "inputs": [],
      "name": "DEFAULT_ADMIN_ROLE",
      "outputs": [
        {
          "internalType": "bytes32",
          "name": "",
          "type": "bytes32"
        }
      ],
      "stateMutability": "view",
      "type": "function"
    },
    {
      "inputs": [],
      "name": "EXPORTER_ROLE",
      "outputs": [
        {
          "internalType": "bytes32",
          "name": "",
          "type": "bytes32"
        }
      ],
      "stateMutability": "view",
      "type": "function"
    },
    {
      "inputs": [],
      "name": "FARMER_ROLE",
      "outputs": [
        {
          "internalType": "bytes32",
          "name": "",
          "type": "bytes32"
        }
      ],
      "stateMutability": "view",
      "type": "function"
    },
    {
      "inputs": [],
      "name": "PROCESSOR_ROLE",
      "outputs": [
        {
          "internalType": "bytes32",
          "name": "",
          "type": "bytes32"
        }
      ],
      "stateMutability": "view",
      "type": "function"
    },
    {
      "inputs": [],
      "name": "ROASTERY_ROLE",
      "outputs": [
        {
          "internalType": "bytes32",
          "name": "",
          "type": "bytes32"
        }
      ],
      "stateMutability": "view",
      "type": "function"
    },
    {
      "inputs": [
        {
          "internalType": "uint256",
          "name": "",
          "type": "uint256"
        }
      ],
      "name": "coffeeLots",
      "outputs": [
        {
          "internalType": "uint256",
          "name": "id",
          "type": "uint256"
        },
        {
          "internalType": "string",
          "name": "qrCodeIdentifier",
          "type": "string"
        },
        {
          "internalType": "enum CoffeeTraceability.LotStatus",
          "name": "status",
          "type": "uint8"
        },
        {
          "internalType": "address",
          "name": "currentActor",
          "type": "address"
        },
        {
          "internalType": "address",
          "name": "farmerAddress",
          "type": "address"
        },
        {
          "components": [
            {
              "internalType": "string",
              "name": "gpsCoordinates",
              "type": "string"
            },
            {
              "internalType": "uint256",
              "name": "elevation",
              "type": "uint256"
            },
            {
              "internalType": "string",
              "name": "coffeeVariety",
              "type": "string"
            },
            {
              "internalType": "string",
              "name": "cultivationMethod",
              "type": "string"
            },
            {
              "internalType": "string",
              "name": "ipfsEvidenceHash",
              "type": "string"
            }
          ],
          "internalType": "struct CoffeeTraceability.FarmData",
          "name": "farmDetails",
          "type": "tuple"
        },
        {
          "components": [
            {
              "internalType": "uint256",
              "name": "harvestDate",
              "type": "uint256"
            },
            {
              "internalType": "string",
              "name": "harvestMethod",
              "type": "string"
            }
          ],
          "internalType": "struct CoffeeTraceability.HarvestData",
          "name": "harvestDetails",
          "type": "tuple"
        },
        {
          "components": [
            {
              "internalType": "string",
              "name": "processMethod",
              "type": "string"
            },
            {
              "internalType": "uint256",
              "name": "fermentationTime",
              "type": "uint256"
            },
            {
              "internalType": "uint256",
              "name": "moistureContent",
              "type": "uint256"
            },
            {
              "internalType": "uint256",
              "name": "impurityRate",
              "type": "uint256"
            },
            {
              "internalType": "string",
              "name": "ipfsReportHash",
              "type": "string"
            }
          ],
          "internalType": "struct CoffeeTraceability.ProcessingData",
          "name": "processingDetails",
          "type": "tuple"
        },
        {
          "components": [
            {
              "internalType": "string",
              "name": "roastProfile",
              "type": "string"
            },
            {
              "internalType": "uint256",
              "name": "roastBatchSize",
              "type": "uint256"
            },
            {
              "internalType": "uint256",
              "name": "cuppingScore",
              "type": "uint256"
            },
            {
              "internalType": "string",
              "name": "qualityGrade",
              "type": "string"
            }
          ],
          "internalType": "struct CoffeeTraceability.RoastingData",
          "name": "roastingDetails",
          "type": "tuple"
        },
        {
          "components": [
            {
              "internalType": "string",
              "name": "containerId",
              "type": "string"
            },
            {
              "internalType": "string",
              "name": "exportPort",
              "type": "string"
            },
            {
              "internalType": "string",
              "name": "certifications",
              "type": "string"
            },
            {
              "internalType": "uint256",
              "name": "exportTimestamp",
              "type": "uint256"
            }
          ],
          "internalType": "struct CoffeeTraceability.ExportData",
          "name": "exportDetails",
          "type": "tuple"
        }
      ],
      "stateMutability": "view",
      "type": "function"
    },
    {
      "inputs": [
        {
          "internalType": "bytes32",
          "name": "role",
          "type": "bytes32"
        }
      ],
      "name": "getRoleAdmin",
      "outputs": [
        {
          "internalType": "bytes32",
          "name": "",
          "type": "bytes32"
        }
      ],
      "stateMutability": "view",
      "type": "function"
    },
    {
      "inputs": [
        {
          "internalType": "bytes32",
          "name": "role",
          "type": "bytes32"
        },
        {
          "internalType": "address",
          "name": "account",
          "type": "address"
        }
      ],
      "name": "grantAgentRole",
      "outputs": [],
      "stateMutability": "nonpayable",
      "type": "function"
    },
    {
      "inputs": [
        {
          "internalType": "bytes32",
          "name": "role",
          "type": "bytes32"
        },
        {
          "internalType": "address",
          "name": "account",
          "type": "address"
        }
      ],
      "name": "grantRole",
      "outputs": [],
      "stateMutability": "nonpayable",
      "type": "function"
    },
    {
      "inputs": [
        {
          "internalType": "bytes32",
          "name": "role",
          "type": "bytes32"
        },
        {
          "internalType": "address",
          "name": "account",
          "type": "address"
        }
      ],
      "name": "hasRole",
      "outputs": [
        {
          "internalType": "bool",
          "name": "",
          "type": "bool"
        }
      ],
      "stateMutability": "view",
      "type": "function"
    },
    {
      "inputs": [
        {
          "internalType": "string",
          "name": "",
          "type": "string"
        }
      ],
      "name": "qrToLotId",
      "outputs": [
        {
          "internalType": "uint256",
          "name": "",
          "type": "uint256"
        }
      ],
      "stateMutability": "view",
      "type": "function"
    },
    {
      "inputs": [
        {
          "internalType": "uint256",
          "name": "lotId",
          "type": "uint256"
        },
        {
          "internalType": "string",
          "name": "reason",
          "type": "string"
        }
      ],
      "name": "rejectLot",
      "outputs": [],
      "stateMutability": "nonpayable",
      "type": "function"
    },
    {
      "inputs": [
        {
          "internalType": "bytes32",
          "name": "role",
          "type": "bytes32"
        },
        {
          "internalType": "address",
          "name": "callerConfirmation",
          "type": "address"
        }
      ],
      "name": "renounceRole",
      "outputs": [],
      "stateMutability": "nonpayable",
      "type": "function"
    },
    {
      "inputs": [
        {
          "internalType": "bytes32",
          "name": "role",
          "type": "bytes32"
        },
        {
          "internalType": "address",
          "name": "account",
          "type": "address"
        }
      ],
      "name": "revokeAgentRole",
      "outputs": [],
      "stateMutability": "nonpayable",
      "type": "function"
    },
    {
      "inputs": [
        {
          "internalType": "bytes32",
          "name": "role",
          "type": "bytes32"
        },
        {
          "internalType": "address",
          "name": "account",
          "type": "address"
        }
      ],
      "name": "revokeRole",
      "outputs": [],
      "stateMutability": "nonpayable",
      "type": "function"
    },
    {
      "inputs": [
        {
          "internalType": "bytes4",
          "name": "interfaceId",
          "type": "bytes4"
        }
      ],
      "name": "supportsInterface",
      "outputs": [
        {
          "internalType": "bool",
          "name": "",
          "type": "bool"
        }
      ],
      "stateMutability": "view",
      "type": "function"
    },
    {
      "inputs": [
        {
          "internalType": "uint256",
          "name": "lotId",
          "type": "uint256"
        },
        {
          "components": [
            {
              "internalType": "string",
              "name": "processMethod",
              "type": "string"
            },
            {
              "internalType": "uint256",
              "name": "fermentationTime",
              "type": "uint256"
            },
            {
              "internalType": "uint256",
              "name": "moistureContent",
              "type": "uint256"
            },
            {
              "internalType": "uint256",
              "name": "impurityRate",
              "type": "uint256"
            },
            {
              "internalType": "string",
              "name": "ipfsReportHash",
              "type": "string"
            }
          ],
          "internalType": "struct CoffeeTraceability.ProcessingData",
          "name": "procData",
          "type": "tuple"
        }
      ],
      "name": "verifyAndProcessLot",
      "outputs": [],
      "stateMutability": "nonpayable",
      "type": "function"
    }
  ],
  "bytecode": "0x608060405234801561001057600080fd5b5061001c600033610022565b506100ce565b6000828152602081815260408083206001600160a01b038516845290915281205460ff166100c4576000838152602081815260408083206001600160a01b03861684529091529020805460ff1916600117905561007c3390565b6001600160a01b0316826001600160a01b0316847f2f8788117e7eff1d82e926ec794901d17c78024a50270940304540a733656f0d60405160405180910390a45060016100c8565b5060005b92915050565b611a62806100dd6000396000f3fe608060405234801561001057600080fd5b50600436106101165760003560e01c806389152ed1116100a2578063b02d657f11610071578063b02d657f146102a6578063d547741f146102b9578063d69262cb146102cc578063f2a6a241146102df578063f39439701461030657600080fd5b806389152ed11461024d57806391d14854146102785780639af41dbe1461028b578063a217fddf1461029e57600080fd5b80632f2ff15d116100e95780632f2ff15d146101c2578063302533be146101d757806336568abe146101ea57806362e10d7b146101fd5780638222bdb21461022657600080fd5b806301ffc9a71461011b5780631206ae25146101435780631af2db0214610178578063248a9ca31461019f575b600080fd5b61012e610129366004611200565b61032d565b60405190151581526020015b60405180910390f35b61016a7f7a63ecb884246c78e824922ba7a0cd0b39499f5b7ed9901dead5e8b3f45c418081565b60405190815260200161013a565b61016a7f1d9664f55bf4fc1f761ea0cea3ae26fceaa500ab91c8ec49e2b1b10be6f3e62c81565b61016a6101ad366004611231565b60009081526020819052604090206001015490565b6101d56101d036600461124a565b610364565b005b6101d56101e536600461124a565b61038f565b6101d56101f836600461124a565b61041a565b61021061020b366004611231565b61044d565b60405161013a9a99989796959493929190611421565b61016a7fe61decff6e4a5c6b5a3d3cbd28f882e595173563b49353ce5f31dba2de7f05ee81565b61016a61025b366004611551565b805160208183018101805160038252928201919093012091525481565b61012e61028636600461124a565b610c8f565b6101d561029936600461124a565b610cb8565b61016a600081565b6101d56102b4366004611602565b610d3c565b6101d56102c736600461124a565b610ecd565b6101d56102da36600461167e565b610ef2565b61016a7faf60a13a1620ed8606730e7105f2af60851db04bb2ce1a068e80262de457512a81565b61016a7f7c6181838a71a779e445600d4c6ecbe16bacf2b3c5bda69c29fada66d1b645d181565b60006001600160e01b03198216637965db0b60e01b148061035e57506301ffc9a760e01b6001600160e01b03198316145b92915050565b60008281526020819052604090206001015461037f816110b9565b61038983836110c6565b50505050565b600061039a816110b9565b6001600160a01b03821661040b5760405162461bcd60e51b815260206004820152602d60248201527f496e76616c696420616464726573733a2063616e6e6f74206772616e7420746f60448201526c207a65726f206164647265737360981b60648201526084015b60405180910390fd5b6104158383610364565b505050565b6001600160a01b03811633146104435760405163334bd91960e11b815260040160405180910390fd5b6104158282611158565b6002602052600090815260409020805460018201805491929161046f906116c1565b80601f016020809104026020016040519081016040528092919081815260200182805461049b906116c1565b80156104e85780601f106104bd576101008083540402835291602001916104e8565b820191906000526020600020905b8154815290600101906020018083116104cb57829003601f168201915b50505050600283015460038401546040805160a08101909152600486018054959660ff8516966101009095046001600160a01b0390811696509093169382908290610532906116c1565b80601f016020809104026020016040519081016040528092919081815260200182805461055e906116c1565b80156105ab5780601f10610580576101008083540402835291602001916105ab565b820191906000526020600020905b81548152906001019060200180831161058e57829003601f168201915b50505050508152602001600182015481526020016002820180546105ce906116c1565b80601f01602080910402602001604051908101604052809291908181526020018280546105fa906116c1565b80156106475780601f1061061c57610100808354040283529160200191610647565b820191906000526020600020905b81548152906001019060200180831161062a57829003601f168201915b50505050508152602001600382018054610660906116c1565b80601f016020809104026020016040519081016040528092919081815260200182805461068c906116c1565b80156106d95780601f106106ae576101008083540402835291602001916106d9565b820191906000526020600020905b8154815290600101906020018083116106bc57829003601f168201915b505050505081526020016004820180546106f2906116c1565b80601f016020809104026020016040519081016040528092919081815260200182805461071e906116c1565b801561076b5780601f106107405761010080835404028352916020019161076b565b820191906000526020600020905b81548152906001019060200180831161074e57829003601f168201915b50505050508152505090806009016040518060400160405290816000820154815260200160018201805461079e906116c1565b80601f01602080910402602001604051908101604052809291908181526020018280546107ca906116c1565b80156108175780601f106107ec57610100808354040283529160200191610817565b820191906000526020600020905b8154815290600101906020018083116107fa57829003601f168201915b5050505050815250509080600b016040518060a0016040529081600082018054610840906116c1565b80601f016020809104026020016040519081016040528092919081815260200182805461086c906116c1565b80156108b95780601f1061088e576101008083540402835291602001916108b9565b820191906000526020600020905b81548152906001019060200180831161089c57829003601f168201915b505050505081526020016001820154815260200160028201548152602001600382015481526020016004820180546108f0906116c1565b80601f016020809104026020016040519081016040528092919081815260200182805461091c906116c1565b80156109695780601f1061093e57610100808354040283529160200191610969565b820191906000526020600020905b81548152906001019060200180831161094c57829003601f168201915b5050505050815250509080601001604051806080016040529081600082018054610992906116c1565b80601f01602080910402602001604051908101604052809291908181526020018280546109be906116c1565b8015610a0b5780601f106109e057610100808354040283529160200191610a0b565b820191906000526020600020905b8154815290600101906020018083116109ee57829003601f168201915b505050505081526020016001820154815260200160028201548152602001600382018054610a38906116c1565b80601f0160208091040260200160405190810160405280929190818152602001828054610a64906116c1565b8015610ab15780601f10610a8657610100808354040283529160200191610ab1565b820191906000526020600020905b815481529060010190602001808311610a9457829003601f168201915b5050505050815250509080601401604051806080016040529081600082018054610ada906116c1565b80601f0160208091040260200160405190810160405280929190818152602001828054610b06906116c1565b8015610b535780601f10610b2857610100808354040283529160200191610b53565b820191906000526020600020905b815481529060010190602001808311610b3657829003601f168201915b50505050508152602001600182018054610b6c906116c1565b80601f0160208091040260200160405190810160405280929190818152602001828054610b98906116c1565b8015610be55780601f10610bba57610100808354040283529160200191610be5565b820191906000526020600020905b815481529060010190602001808311610bc857829003601f168201915b50505050508152602001600282018054610bfe906116c1565b80601f0160208091040260200160405190810160405280929190818152602001828054610c2a906116c1565b8015610c775780601f10610c4c57610100808354040283529160200191610c77565b820191906000526020600020905b815481529060010190602001808311610c5a57829003601f168201915b5050505050815260200160038201548152505090508a565b6000918252602082815260408084206001600160a01b0393909316845291905290205460ff1690565b6000610cc3816110b9565b6001600160a01b038216610d325760405162461bcd60e51b815260206004820152603060248201527f496e76616c696420616464726573733a2063616e6e6f74207265766f6b65206660448201526f726f6d207a65726f206164647265737360801b6064820152608401610402565b6104158383610ecd565b7f7a63ecb884246c78e824922ba7a0cd0b39499f5b7ed9901dead5e8b3f45c4180610d66816110b9565b8360036000828152600260208190526040909120015460ff166006811115610d9057610d906112cc565b03610dad5760405162461bcd60e51b8152600401610402906116fb565b60008581526002602052604090206001600282015460ff166006811115610dd657610dd66112cc565b14610e235760405162461bcd60e51b815260206004820152601e60248201527f43686920636f2074686520687579206c6f2064612074687520686f61636800006044820152606401610402565b600281018054610100339081026001600160a81b03199092169190911760031790915560405187907f91713cfbc6dc6a765adc905c95652227d91f933f2c847e2b3087660ecbbf44a190610e7a9089908990611765565b60405180910390a3336001600160a01b0316867fa317edb52034674ad9cb4c1a9fc5119be394fcab874f24544e20be3ef99ea63d6003604051610ebd9190611779565b60405180910390a3505050505050565b600082815260208190526040902060010154610ee8816110b9565b6103898383611158565b7f7a63ecb884246c78e824922ba7a0cd0b39499f5b7ed9901dead5e8b3f45c4180610f1c816110b9565b8260036000828152600260208190526040909120015460ff166006811115610f4657610f466112cc565b03610f635760405162461bcd60e51b8152600401610402906116fb565b60008481526002602052604090206001600282015460ff166006811115610f8c57610f8c6112cc565b14610fe35760405162461bcd60e51b815260206004820152602160248201527f4c6f2068616e6720706861692064756f632074687520686f616368207472756f6044820152606360f81b6064820152608401610402565b83600b8201610ff282826118e4565b5050600281810180546001600160a81b031916336101008102919091178317909155604051909187917fa317edb52034674ad9cb4c1a9fc5119be394fcab874f24544e20be3ef99ea63d9161104691611779565b60405180910390a333857fb89c04e7892e8d6dc6e3dd6a2a3f65f5dd4f3c9e6976a696867157e9a96265d461107b8780611787565b602089013560408a013560608b013561109760808d018d611787565b6040516110aa97969594939291906119e5565b60405180910390a35050505050565b6110c381336111c3565b50565b60006110d28383610c8f565b611150576000838152602081815260408083206001600160a01b03861684529091529020805460ff191660011790556111083390565b6001600160a01b0316826001600160a01b0316847f2f8788117e7eff1d82e926ec794901d17c78024a50270940304540a733656f0d60405160405180910390a450600161035e565b50600061035e565b60006111648383610c8f565b15611150576000838152602081815260408083206001600160a01b0386168085529252808320805460ff1916905551339286917ff6391f5c32d9c69d2a47ea670b442974b53935d1edc7fd64eb21e047a839171b9190a450600161035e565b6111cd8282610c8f565b6111fc5760405163e2517d3f60e01b81526001600160a01b038216600482015260248101839052604401610402565b5050565b60006020828403121561121257600080fd5b81356001600160e01b03198116811461122a57600080fd5b9392505050565b60006020828403121561124357600080fd5b5035919050565b6000806040838503121561125d57600080fd5b8235915060208301356001600160a01b038116811461127b57600080fd5b809150509250929050565b6000815180845260005b818110156112ac57602081850181015186830182015201611290565b506000602082860101526020601f19601f83011685010191505092915050565b634e487b7160e01b600052602160045260246000fd5b6007811061130057634e487b7160e01b600052602160045260246000fd5b9052565b8051825260006020820151604060208501526113236040850182611286565b949350505050565b6000815160a0845261134060a0850182611286565b9050602083015160208501526040830151604085015260608301516060850152608083015184820360808601526113778282611286565b95945050505050565b60008151608084526113956080850182611286565b90506020830151602085015260408301516040850152606083015184820360608601526113778282611286565b60008151608084526113d76080850182611286565b9050602083015184820360208601526113f08282611286565b9150506040830151848203604086015261140a8282611286565b915050606083015160608501528091505092915050565b60006101408c835280602084015261143b8184018d611286565b905061144a604084018c6112e2565b6001600160a01b038a811660608501528916608084015282810360a08481019190915288518183529061147f90830182611286565b905060208901516020830152604089015182820360408401526114a28282611286565b915050606089015182820360608401526114bc8282611286565b915050608089015182820360808401526114d68282611286565b9250505082810360c08401526114ec8188611304565b905082810360e0840152611500818761132b565b90508281036101008401526115158186611380565b905082810361012084015261152a81856113c2565b9d9c50505050505050505050505050565b634e487b7160e01b600052604160045260246000fd5b60006020828403121561156357600080fd5b813567ffffffffffffffff8082111561157b57600080fd5b818401915084601f83011261158f57600080fd5b8135818111156115a1576115a161153b565b604051601f8201601f19908116603f011681019083821181831017156115c9576115c961153b565b816040528281528760208487010111156115e257600080fd5b826020860160208301376000928101602001929092525095945050505050565b60008060006040848603121561161757600080fd5b83359250602084013567ffffffffffffffff8082111561163657600080fd5b818601915086601f83011261164a57600080fd5b81358181111561165957600080fd5b87602082850101111561166b57600080fd5b6020830194508093505050509250925092565b6000806040838503121561169157600080fd5b82359150602083013567ffffffffffffffff8111156116af57600080fd5b830160a0818603121561127b57600080fd5b600181811c908216806116d557607f821691505b6020821081036116f557634e487b7160e01b600052602260045260246000fd5b50919050565b60208082526021908201527f4c6f2068616e6720646120626920646f6e672062616e672076696e68207669656040820152603760f91b606082015260800190565b81835281816020850137506000828201602090810191909152601f909101601f19169091010190565b60208152600061132360208301848661173c565b6020810161035e82846112e2565b6000808335601e1984360301811261179e57600080fd5b83018035915067ffffffffffffffff8211156117b957600080fd5b6020019150368190038213156117ce57600080fd5b9250929050565b601f82111561041557600081815260208120601f850160051c810160208610156117fc5750805b601f850160051c820191505b8181101561181b57828155600101611808565b505050505050565b67ffffffffffffffff83111561183b5761183b61153b565b61184f8361184983546116c1565b836117d5565b6000601f841160018114611883576000851561186b5750838201355b600019600387901b1c1916600186901b1783556118dd565b600083815260209020601f19861690835b828110156118b45786850135825560209485019460019092019101611894565b50868210156118d15760001960f88860031b161c19848701351681555b505060018560011b0183555b5050505050565b6118ee8283611787565b67ffffffffffffffff8111156119065761190661153b565b61191a8161191485546116c1565b856117d5565b6000601f82116001811461194e57600083156119365750838201355b600019600385901b1c1916600184901b1785556119a8565b600085815260209020601f19841690835b8281101561197f578685013582556020948501946001909201910161195f565b508482101561199c5760001960f88660031b161c19848701351681555b505060018360011b0185555b505050506020820135600182015560408201356002820155606082013560038201556119d76080830183611787565b610389818360048601611823565b60a0815260006119f960a08301898b61173c565b8760208401528660408401528560608401528281036080840152611a1e81858761173c565b9a995050505050505050505056fea2646970667358221220d52f590199b789ff97504faec123208c592b47f0f1c84573937a5239ca8af82964736f6c63430008140033",
  "linkReferences": {},
  "deployedLinkReferences": {}
}