{
  "_format": "hh-sol-artifact-1",
  "contractName": "CoffeeTraceability",
  "sourceName": "contracts/CoffeeTraceability.sol",
  "abi": [
    {
      "inputs": [],
      "stateMutability": "nonpayable",
      "type": "constructor"
    },
    {
      "inputs": [],
      "name": "AccessControlBadConfirmation",
      "type": "error"
    },
    {
      "inputs": [
        {
          "internalType": "address",
          "name": "account",
          "type": "address"
        },
        {
          "internalType": "bytes32",
          "name": "neededRole",
          "type": "bytes32"
        }
      ],
      "name": "AccessControlUnauthorizedAccount",
      "type": "error"
    },
    {
      "anonymous": false,
      "inputs": [
        {
          "indexed": true,
          "internalType": "bytes32",
          "name": "role",
          "type": "bytes32"
        },
        {
          "indexed": true,
          "internalType": "bytes32",
          "name": "previousAdminRole",
          "type": "bytes32"
        },
        {
          "indexed": true,
          "internalType": "bytes32",
          "name": "newAdminRole",
          "type": "bytes32"
        }
      ],
      "name": "RoleAdminChanged",
      "type": "event"
    },
    {
      "anonymous": false,
      "inputs": [
        {
          "indexed": true,
          "internalType": "bytes32",
          "name": "role",
          "type": "bytes32"
        },
        {
          "indexed": true,
          "internalType": "address",
          "name": "account",
          "type": "address"
        },
        {
          "indexed": true,
          "internalType": "address",
          "name": "sender",
          "type": "address"
        }
      ],
      "name": "RoleGranted",
      "type": "event"
    },
    {
      "anonymous": false,
      "inputs": [
        {
          "indexed": true,
          "internalType": "bytes32",
          "name": "role",
          "type": "bytes32"
        },
        {
          "indexed": true,
          "internalType": "address",
          "name": "account",
          "type": "address"
        },
        {
          "indexed": true,
          "internalType": "address",
          "name": "sender",
          "type": "address"
        }
      ],
      "name": "RoleRevoked",
      "type": "event"
    },
    {
      "inputs": [],
      "name": "COOPERATIVE_ROLE",
      "outputs": [
        {
          "internalType": "bytes32",
          "name": "",
          "type": "bytes32"
        }
      ],
      "stateMutability": "view",
      "type": "function"
    },
    {
      "inputs": [],
      "name": "DEFAULT_ADMIN_ROLE",
      "outputs": [
        {
          "internalType": "bytes32",
          "name": "",
          "type": "bytes32"
        }
      ],
      "stateMutability": "view",
      "type": "function"
    },
    {
      "inputs": [],
      "name": "EXPORTER_ROLE",
      "outputs": [
        {
          "internalType": "bytes32",
          "name": "",
          "type": "bytes32"
        }
      ],
      "stateMutability": "view",
      "type": "function"
    },
    {
      "inputs": [],
      "name": "FARMER_ROLE",
      "outputs": [
        {
          "internalType": "bytes32",
          "name": "",
          "type": "bytes32"
        }
      ],
      "stateMutability": "view",
      "type": "function"
    },
    {
      "inputs": [],
      "name": "PROCESSOR_ROLE",
      "outputs": [
        {
          "internalType": "bytes32",
          "name": "",
          "type": "bytes32"
        }
      ],
      "stateMutability": "view",
      "type": "function"
    },
    {
      "inputs": [],
      "name": "ROASTERY_ROLE",
      "outputs": [
        {
          "internalType": "bytes32",
          "name": "",
          "type": "bytes32"
        }
      ],
      "stateMutability": "view",
      "type": "function"
    },
    {
      "inputs": [
        {
          "internalType": "uint256",
          "name": "",
          "type": "uint256"
        }
      ],
      "name": "coffeeLots",
      "outputs": [
        {
          "internalType": "uint256",
          "name": "id",
          "type": "uint256"
        },
        {
          "internalType": "string",
          "name": "qrCodeIdentifier",
          "type": "string"
        },
        {
          "internalType": "enum CoffeeTraceability.LotStatus",
          "name": "status",
          "type": "uint8"
        },
        {
          "internalType": "address",
          "name": "currentActor",
          "type": "address"
        },
        {
          "internalType": "address",
          "name": "farmerAddress",
          "type": "address"
        },
        {
          "components": [
            {
              "internalType": "string",
              "name": "gpsCoordinates",
              "type": "string"
            },
            {
              "internalType": "uint256",
              "name": "elevation",
              "type": "uint256"
            },
            {
              "internalType": "string",
              "name": "coffeeVariety",
              "type": "string"
            },
            {
              "internalType": "string",
              "name": "cultivationMethod",
              "type": "string"
            },
            {
              "internalType": "string",
              "name": "ipfsEvidenceHash",
              "type": "string"
            }
          ],
          "internalType": "struct CoffeeTraceability.FarmData",
          "name": "farmDetails",
          "type": "tuple"
        },
        {
          "components": [
            {
              "internalType": "uint256",
              "name": "harvestDate",
              "type": "uint256"
            },
            {
              "internalType": "string",
              "name": "harvestMethod",
              "type": "string"
            }
          ],
          "internalType": "struct CoffeeTraceability.HarvestData",
          "name": "harvestDetails",
          "type": "tuple"
        },
        {
          "components": [
            {
              "internalType": "string",
              "name": "processMethod",
              "type": "string"
            },
            {
              "internalType": "uint256",
              "name": "fermentationTime",
              "type": "uint256"
            },
            {
              "internalType": "uint256",
              "name": "moistureContent",
              "type": "uint256"
            },
            {
              "internalType": "uint256",
              "name": "impurityRate",
              "type": "uint256"
            },
            {
              "internalType": "string",
              "name": "ipfsReportHash",
              "type": "string"
            }
          ],
          "internalType": "struct CoffeeTraceability.ProcessingData",
          "name": "processingDetails",
          "type": "tuple"
        },
        {
          "components": [
            {
              "internalType": "string",
              "name": "roastProfile",
              "type": "string"
            },
            {
              "internalType": "uint256",
              "name": "roastBatchSize",
              "type": "uint256"
            },
            {
              "internalType": "uint256",
              "name": "cuppingScore",
              "type": "uint256"
            },
            {
              "internalType": "string",
              "name": "qualityGrade",
              "type": "string"
            }
          ],
          "internalType": "struct CoffeeTraceability.RoastingData",
          "name": "roastingDetails",
          "type": "tuple"
        },
        {
          "components": [
            {
              "internalType": "string",
              "name": "containerId",
              "type": "string"
            },
            {
              "internalType": "string",
              "name": "exportPort",
              "type": "string"
            },
            {
              "internalType": "string",
              "name": "certifications",
              "type": "string"
            },
            {
              "internalType": "uint256",
              "name": "exportTimestamp",
              "type": "uint256"
            }
          ],
          "internalType": "struct CoffeeTraceability.ExportData",
          "name": "exportDetails",
          "type": "tuple"
        }
      ],
      "stateMutability": "view",
      "type": "function"
    },
    {
      "inputs": [
        {
          "internalType": "bytes32",
          "name": "role",
          "type": "bytes32"
        }
      ],
      "name": "getRoleAdmin",
      "outputs": [
        {
          "internalType": "bytes32",
          "name": "",
          "type": "bytes32"
        }
      ],
      "stateMutability": "view",
      "type": "function"
    },
    {
      "inputs": [
        {
          "internalType": "bytes32",
          "name": "role",
          "type": "bytes32"
        },
        {
          "internalType": "address",
          "name": "account",
          "type": "address"
        }
      ],
      "name": "grantAgentRole",
      "outputs": [],
      "stateMutability": "nonpayable",
      "type": "function"
    },
    {
      "inputs": [
        {
          "internalType": "bytes32",
          "name": "role",
          "type": "bytes32"
        },
        {
          "internalType": "address",
          "name": "account",
          "type": "address"
        }
      ],
      "name": "grantRole",
      "outputs": [],
      "stateMutability": "nonpayable",
      "type": "function"
    },
    {
      "inputs": [
        {
          "internalType": "bytes32",
          "name": "role",
          "type": "bytes32"
        },
        {
          "internalType": "address",
          "name": "account",
          "type": "address"
        }
      ],
      "name": "hasRole",
      "outputs": [
        {
          "internalType": "bool",
          "name": "",
          "type": "bool"
        }
      ],
      "stateMutability": "view",
      "type": "function"
    },
    {
      "inputs": [
        {
          "internalType": "string",
          "name": "",
          "type": "string"
        }
      ],
      "name": "qrToLotId",
      "outputs": [
        {
          "internalType": "uint256",
          "name": "",
          "type": "uint256"
        }
      ],
      "stateMutability": "view",
      "type": "function"
    },
    {
      "inputs": [
        {
          "internalType": "bytes32",
          "name": "role",
          "type": "bytes32"
        },
        {
          "internalType": "address",
          "name": "callerConfirmation",
          "type": "address"
        }
      ],
      "name": "renounceRole",
      "outputs": [],
      "stateMutability": "nonpayable",
      "type": "function"
    },
    {
      "inputs": [
        {
          "internalType": "bytes32",
          "name": "role",
          "type": "bytes32"
        },
        {
          "internalType": "address",
          "name": "account",
          "type": "address"
        }
      ],
      "name": "revokeAgentRole",
      "outputs": [],
      "stateMutability": "nonpayable",
      "type": "function"
    },
    {
      "inputs": [
        {
          "internalType": "bytes32",
          "name": "role",
          "type": "bytes32"
        },
        {
          "internalType": "address",
          "name": "account",
          "type": "address"
        }
      ],
      "name": "revokeRole",
      "outputs": [],
      "stateMutability": "nonpayable",
      "type": "function"
    },
    {
      "inputs": [
        {
          "internalType": "bytes4",
          "name": "interfaceId",
          "type": "bytes4"
        }
      ],
      "name": "supportsInterface",
      "outputs": [
        {
          "internalType": "bool",
          "name": "",
          "type": "bool"
        }
      ],
      "stateMutability": "view",
      "type": "function"
    }
  ],
  "bytecode": "0x608060405234801561001057600080fd5b5061001c600033610022565b506100ce565b6000828152602081815260408083206001600160a01b038516845290915281205460ff166100c4576000838152602081815260408083206001600160a01b03861684529091529020805460ff1916600117905561007c3390565b6001600160a01b0316826001600160a01b0316847f2f8788117e7eff1d82e926ec794901d17c78024a50270940304540a733656f0d60405160405180910390a45060016100c8565b5060005b92915050565b6112cd806100dd6000396000f3fe608060405234801561001057600080fd5b50600436106101005760003560e01c80638222bdb211610097578063a217fddf11610066578063a217fddf14610288578063d547741f14610290578063f2a6a241146102a3578063f3943970146102ca57600080fd5b80638222bdb21461021057806389152ed11461023757806391d14854146102625780639af41dbe1461027557600080fd5b80632f2ff15d116100d35780632f2ff15d146101ac578063302533be146101c157806336568abe146101d457806362e10d7b146101e757600080fd5b806301ffc9a7146101055780631206ae251461012d5780631af2db0214610162578063248a9ca314610189575b600080fd5b610118610113366004610e68565b6102f1565b60405190151581526020015b60405180910390f35b6101547f7a63ecb884246c78e824922ba7a0cd0b39499f5b7ed9901dead5e8b3f45c418081565b604051908152602001610124565b6101547f1d9664f55bf4fc1f761ea0cea3ae26fceaa500ab91c8ec49e2b1b10be6f3e62c81565b610154610197366004610e99565b60009081526020819052604090206001015490565b6101bf6101ba366004610eb2565b610328565b005b6101bf6101cf366004610eb2565b610353565b6101bf6101e2366004610eb2565b6103de565b6101fa6101f5366004610e99565b610411565b6040516101249a999897969594939291906110bd565b6101547fe61decff6e4a5c6b5a3d3cbd28f882e595173563b49353ce5f31dba2de7f05ee81565b6101546102453660046111ac565b805160208183018101805160038252928201919093012091525481565b610118610270366004610eb2565b610c53565b6101bf610283366004610eb2565b610c7c565b610154600081565b6101bf61029e366004610eb2565b610cfc565b6101547faf60a13a1620ed8606730e7105f2af60851db04bb2ce1a068e80262de457512a81565b6101547f7c6181838a71a779e445600d4c6ecbe16bacf2b3c5bda69c29fada66d1b645d181565b60006001600160e01b03198216637965db0b60e01b148061032257506301ffc9a760e01b6001600160e01b03198316145b92915050565b60008281526020819052604090206001015461034381610d21565b61034d8383610d2e565b50505050565b600061035e81610d21565b6001600160a01b0382166103cf5760405162461bcd60e51b815260206004820152602d60248201527f496e76616c696420616464726573733a2063616e6e6f74206772616e7420746f60448201526c207a65726f206164647265737360981b60648201526084015b60405180910390fd5b6103d98383610328565b505050565b6001600160a01b03811633146104075760405163334bd91960e11b815260040160405180910390fd5b6103d98282610dc0565b600260205260009081526040902080546001820180549192916104339061125d565b80601f016020809104026020016040519081016040528092919081815260200182805461045f9061125d565b80156104ac5780601f10610481576101008083540402835291602001916104ac565b820191906000526020600020905b81548152906001019060200180831161048f57829003601f168201915b50505050600283015460038401546040805160a08101909152600486018054959660ff8516966101009095046001600160a01b03908116965090931693829082906104f69061125d565b80601f01602080910402602001604051908101604052809291908181526020018280546105229061125d565b801561056f5780601f106105445761010080835404028352916020019161056f565b820191906000526020600020905b81548152906001019060200180831161055257829003601f168201915b50505050508152602001600182015481526020016002820180546105929061125d565b80601f01602080910402602001604051908101604052809291908181526020018280546105be9061125d565b801561060b5780601f106105e05761010080835404028352916020019161060b565b820191906000526020600020905b8154815290600101906020018083116105ee57829003601f168201915b505050505081526020016003820180546106249061125d565b80601f01602080910402602001604051908101604052809291908181526020018280546106509061125d565b801561069d5780601f106106725761010080835404028352916020019161069d565b820191906000526020600020905b81548152906001019060200180831161068057829003601f168201915b505050505081526020016004820180546106b69061125d565b80601f01602080910402602001604051908101604052809291908181526020018280546106e29061125d565b801561072f5780601f106107045761010080835404028352916020019161072f565b820191906000526020600020905b81548152906001019060200180831161071257829003601f168201915b5050505050815250509080600901604051806040016040529081600082015481526020016001820180546107629061125d565b80601f016020809104026020016040519081016040528092919081815260200182805461078e9061125d565b80156107db5780601f106107b0576101008083540402835291602001916107db565b820191906000526020600020905b8154815290600101906020018083116107be57829003601f168201915b5050505050815250509080600b016040518060a00160405290816000820180546108049061125d565b80601f01602080910402602001604051908101604052809291908181526020018280546108309061125d565b801561087d5780601f106108525761010080835404028352916020019161087d565b820191906000526020600020905b81548152906001019060200180831161086057829003601f168201915b505050505081526020016001820154815260200160028201548152602001600382015481526020016004820180546108b49061125d565b80601f01602080910402602001604051908101604052809291908181526020018280546108e09061125d565b801561092d5780601f106109025761010080835404028352916020019161092d565b820191906000526020600020905b81548152906001019060200180831161091057829003601f168201915b50505050508152505090806010016040518060800160405290816000820180546109569061125d565b80601f01602080910402602001604051908101604052809291908181526020018280546109829061125d565b80156109cf5780601f106109a4576101008083540402835291602001916109cf565b820191906000526020600020905b8154815290600101906020018083116109b257829003601f168201915b5050505050815260200160018201548152602001600282015481526020016003820180546109fc9061125d565b80601f0160208091040260200160405190810160405280929190818152602001828054610a289061125d565b8015610a755780601f10610a4a57610100808354040283529160200191610a75565b820191906000526020600020905b815481529060010190602001808311610a5857829003601f168201915b5050505050815250509080601401604051806080016040529081600082018054610a9e9061125d565b80601f0160208091040260200160405190810160405280929190818152602001828054610aca9061125d565b8015610b175780601f10610aec57610100808354040283529160200191610b17565b820191906000526020600020905b815481529060010190602001808311610afa57829003601f168201915b50505050508152602001600182018054610b309061125d565b80601f0160208091040260200160405190810160405280929190818152602001828054610b5c9061125d565b8015610ba95780601f10610b7e57610100808354040283529160200191610ba9565b820191906000526020600020905b815481529060010190602001808311610b8c57829003601f168201915b50505050508152602001600282018054610bc29061125d565b80601f0160208091040260200160405190810160405280929190818152602001828054610bee9061125d565b8015610c3b5780601f10610c1057610100808354040283529160200191610c3b565b820191906000526020600020905b815481529060010190602001808311610c1e57829003601f168201915b5050505050815260200160038201548152505090508a565b6000918252602082815260408084206001600160a01b0393909316845291905290205460ff1690565b6000610c8781610d21565b6001600160a01b038216610cf65760405162461bcd60e51b815260206004820152603060248201527f496e76616c696420616464726573733a2063616e6e6f74207265766f6b65206660448201526f726f6d207a65726f206164647265737360801b60648201526084016103c6565b6103d983835b600082815260208190526040902060010154610d1781610d21565b61034d8383610dc0565b610d2b8133610e2b565b50565b6000610d3a8383610c53565b610db8576000838152602081815260408083206001600160a01b03861684529091529020805460ff19166001179055610d703390565b6001600160a01b0316826001600160a01b0316847f2f8788117e7eff1d82e926ec794901d17c78024a50270940304540a733656f0d60405160405180910390a4506001610322565b506000610322565b6000610dcc8383610c53565b15610db8576000838152602081815260408083206001600160a01b0386168085529252808320805460ff1916905551339286917ff6391f5c32d9c69d2a47ea670b442974b53935d1edc7fd64eb21e047a839171b9190a4506001610322565b610e358282610c53565b610e645760405163e2517d3f60e01b81526001600160a01b0382166004820152602481018390526044016103c6565b5050565b600060208284031215610e7a57600080fd5b81356001600160e01b031981168114610e9257600080fd5b9392505050565b600060208284031215610eab57600080fd5b5035919050565b60008060408385031215610ec557600080fd5b8235915060208301356001600160a01b0381168114610ee357600080fd5b809150509250929050565b6000815180845260005b81811015610f1457602081850181015186830182015201610ef8565b506000602082860101526020601f19601f83011685010191505092915050565b6000815160a08452610f4960a0850182610eee565b90506020830151602085015260408301518482036040860152610f6c8282610eee565b91505060608301518482036060860152610f868282610eee565b91505060808301518482036080860152610fa08282610eee565b95945050505050565b805182526000602082015160406020850152610fc86040850182610eee565b949350505050565b6000815160a08452610fe560a0850182610eee565b905060208301516020850152604083015160408501526060830151606085015260808301518482036080860152610fa08282610eee565b60008151608084526110316080850182610eee565b9050602083015160208501526040830151604085015260608301518482036060860152610fa08282610eee565b60008151608084526110736080850182610eee565b90506020830151848203602086015261108c8282610eee565b915050604083015184820360408601526110a68282610eee565b915050606083015160608501528091505092915050565b60006101408c83528060208401526110d78184018d610eee565b905060078b106110f757634e487b7160e01b600052602160045260246000fd5b8a6040840152611112606084018b6001600160a01b03169052565b6001600160a01b038916608084015282810360a08401526111338189610f34565b905082810360c08401526111478188610fa9565b905082810360e084015261115b8187610fd0565b9050828103610100840152611170818661101c565b9050828103610120840152611185818561105e565b9d9c50505050505050505050505050565b634e487b7160e01b600052604160045260246000fd5b6000602082840312156111be57600080fd5b813567ffffffffffffffff808211156111d657600080fd5b818401915084601f8301126111ea57600080fd5b8135818111156111fc576111fc611196565b604051601f8201601f19908116603f0116810190838211818310171561122457611224611196565b8160405282815287602084870101111561123d57600080fd5b826020860160208301376000928101602001929092525095945050505050565b600181811c9082168061127157607f821691505b60208210810361129157634e487b7160e01b600052602260045260246000fd5b5091905056fea2646970667358221220ec0e18692fbcf0b21b8300884f90cb6322b28c69563bd28467ba448715c4db8064736f6c63430008140033",
  "linkReferences": {},
  "deployedLinkReferences": {}
}