{
  "_format": "hh-sol-artifact-1",
  "contractName": "BatchRegistry",
  "sourceName": "contracts/BatchRegistry.sol",
  "abi": [
    {
      "inputs": [
        {
          "internalType": "address",
          "name": "_userRegistry",
          "type": "address"
        }
      ],
      "stateMutability": "nonpayable",
      "type": "constructor"
    },
    {
      "anonymous": false,
      "inputs": [
        {
          "indexed": false,
          "internalType": "string",
          "name": "batchId",
          "type": "string"
        },
        {
          "indexed": false,
          "internalType": "string",
          "name": "traceabilityCode",
          "type": "string"
        },
        {
          "indexed": true,
          "internalType": "address",
          "name": "creator",
          "type": "address"
        }
      ],
      "name": "BatchCreated",
      "type": "event"
    },
    {
      "anonymous": false,
      "inputs": [
        {
          "indexed": false,
          "internalType": "string",
          "name": "batchId",
          "type": "string"
        },
        {
          "indexed": true,
          "internalType": "address",
          "name": "from",
          "type": "address"
        },
        {
          "indexed": true,
          "internalType": "address",
          "name": "to",
          "type": "address"
        }
      ],
      "name": "BatchOwnershipTransferred",
      "type": "event"
    },
    {
      "anonymous": false,
      "inputs": [
        {
          "indexed": false,
          "internalType": "string",
          "name": "batchId",
          "type": "string"
        },
        {
          "indexed": false,
          "internalType": "enum BatchRegistry.BatchStatus",
          "name": "status",
          "type": "uint8"
        }
      ],
      "name": "BatchStatusUpdated",
      "type": "event"
    },
    {
      "inputs": [
        {
          "internalType": "string",
          "name": "_batchId",
          "type": "string"
        },
        {
          "internalType": "string",
          "name": "_traceabilityCode",
          "type": "string"
        },
        {
          "internalType": "string",
          "name": "_ipfsCid",
          "type": "string"
        },
        {
          "internalType": "uint256",
          "name": "_weight",
          "type": "uint256"
        }
      ],
      "name": "createBatch",
      "outputs": [],
      "stateMutability": "nonpayable",
      "type": "function"
    },
    {
      "inputs": [
        {
          "internalType": "string",
          "name": "_batchId",
          "type": "string"
        }
      ],
      "name": "getBatch",
      "outputs": [
        {
          "components": [
            {
              "internalType": "string",
              "name": "batchId",
              "type": "string"
            },
            {
              "internalType": "enum BatchRegistry.BatchStatus",
              "name": "status",
              "type": "uint8"
            },
            {
              "internalType": "address",
              "name": "currentOwner",
              "type": "address"
            },
            {
              "internalType": "string",
              "name": "traceabilityCode",
              "type": "string"
            },
            {
              "internalType": "string",
              "name": "ipfsCid",
              "type": "string"
            },
            {
              "internalType": "uint256",
              "name": "weight",
              "type": "uint256"
            },
            {
              "internalType": "uint256",
              "name": "createdAt",
              "type": "uint256"
            }
          ],
          "internalType": "struct BatchRegistry.CoffeeBatch",
          "name": "",
          "type": "tuple"
        }
      ],
      "stateMutability": "view",
      "type": "function"
    },
    {
      "inputs": [
        {
          "internalType": "string",
          "name": "_batchId",
          "type": "string"
        },
        {
          "internalType": "address",
          "name": "_to",
          "type": "address"
        }
      ],
      "name": "transferBatchOwnership",
      "outputs": [],
      "stateMutability": "nonpayable",
      "type": "function"
    },
    {
      "inputs": [
        {
          "internalType": "string",
          "name": "_batchId",
          "type": "string"
        },
        {
          "internalType": "enum BatchRegistry.BatchStatus",
          "name": "_newStatus",
          "type": "uint8"
        }
      ],
      "name": "updateBatchStatus",
      "outputs": [],
      "stateMutability": "nonpayable",
      "type": "function"
    },
    {
      "inputs": [],
      "name": "userRegistryAddress",
      "outputs": [
        {
          "internalType": "address",
          "name": "",
          "type": "address"
        }
      ],
      "stateMutability": "view",
      "type": "function"
    }
  ],
  "bytecode": "0x608060405234801561001057600080fd5b506040516111ef3803806111ef83398101604081905261002f91610054565b600180546001600160a01b0319166001600160a01b0392909216919091179055610084565b60006020828403121561006657600080fd5b81516001600160a01b038116811461007d57600080fd5b9392505050565b61115c806100936000396000f3fe608060405234801561001057600080fd5b50600436106100575760003560e01c80633f39eaa11461005c578063454f91331461008c578063b50a3c87146100a1578063eee856c2146100b4578063f9ca4274146100c7575b600080fd5b60015461006f906001600160a01b031681565b6040516001600160a01b0390911681526020015b60405180910390f35b61009f61009a366004610c06565b6100e7565b005b61009f6100af366004610c96565b610410565b61009f6100c2366004610cec565b610578565b6100da6100d5366004610d3f565b610868565b6040516100839190610e04565b600154604051639f8a13d760e01b81523360048201526001600160a01b0390911690639f8a13d790602401602060405180830381865afa15801561012f573d6000803e3d6000fd5b505050506040513d601f19601f820116820180604052508101906101539190610ea7565b6101785760405162461bcd60e51b815260040161016f90610ed0565b60405180910390fd5b600180546040516395a8c58d60e01b815233600482015260248101929092526001600160a01b0316906395a8c58d90604401602060405180830381865afa1580156101c7573d6000803e3d6000fd5b505050506040513d601f19601f820116820180604052508101906101eb9190610ea7565b61024a5760405162461bcd60e51b815260206004820152602a60248201527f436869204e6f6e672044616e20284641524d455229206d6f692064756f632074604482015269616f206c6f2068616e6760b01b606482015260840161016f565b60008460405161025a9190610f19565b9081526020016040518091039020600501546000146102c95760405162461bcd60e51b815260206004820152602560248201527f4c6f2068616e67206e61792064612064756f63206b686f692074616f207472756044820152646f6320646f60d81b606482015260840161016f565b6040805160e081019091528481526020810160008152602001336001600160a01b03168152602001848152602001838152602001828152602001428152506000856040516103179190610f19565b908152604051908190036020019020815181906103349082610fbe565b50602082015160018083018054909160ff199091169083600781111561035c5761035c610dcc565b021790555060408201516001820180546001600160a01b0390921661010002610100600160a81b0319909216919091179055606082015160028201906103a29082610fbe565b50608082015160038201906103b79082610fbe565b5060a0820151600482015560c09091015160059091015560405133907f14a4819b534290cb8ccfb4060d5410e04c15b9493bccae224d5b9ae9e6f939d090610402908790879061107e565b60405180910390a250505050565b81336001600160a01b031660008260405161042b9190610f19565b908152604051908190036020019020600101546001600160a01b03610100909104161461046a5760405162461bcd60e51b815260040161016f906110ac565b600154604051639f8a13d760e01b81523360048201526001600160a01b0390911690639f8a13d790602401602060405180830381865afa1580156104b2573d6000803e3d6000fd5b505050506040513d601f19601f820116820180604052508101906104d69190610ea7565b6104f25760405162461bcd60e51b815260040161016f90610ed0565b816000846040516105039190610f19565b908152602001604051809103902060010160006101000a81548160ff0219169083600781111561053557610535610dcc565b02179055507f67299131a74fbf9a478b698dd6389d28f2a6c38727ebdafaedc6b1aeff674f11838360405161056b9291906110f1565b60405180910390a1505050565b81336001600160a01b03166000826040516105939190610f19565b908152604051908190036020019020600101546001600160a01b0361010090910416146105d25760405162461bcd60e51b815260040161016f906110ac565b600154604051639f8a13d760e01b81523360048201526001600160a01b0390911690639f8a13d790602401602060405180830381865afa15801561061a573d6000803e3d6000fd5b505050506040513d601f19601f8201168201806040525081019061063e9190610ea7565b61065a5760405162461bcd60e51b815260040161016f90610ed0565b6001600160a01b0382166106b05760405162461bcd60e51b815260206004820152601960248201527f44696120636869206e68616e206b686f6e6720686f70206c6500000000000000604482015260640161016f565b600154604051639f8a13d760e01b81526001600160a01b03848116600483015290911690639f8a13d790602401602060405180830381865afa1580156106fa573d6000803e3d6000fd5b505050506040513d601f19601f8201168201806040525081019061071e9190610ea7565b6107835760405162461bcd60e51b815260206004820152603060248201527f42656e206e68616e206869656e207461692064616e67206269206b686f61206860448201526f6f616320636875612064616e67206b7960801b606482015260840161016f565b6000339050826000856040516107999190610f19565b908152602001604051809103902060010160016101000a8154816001600160a01b0302191690836001600160a01b0316021790555060026000856040516107e09190610f19565b908152602001604051809103902060010160006101000a81548160ff0219169083600781111561081257610812610dcc565b0217905550826001600160a01b0316816001600160a01b03167feaf22fc804144c7c78e650d3a57a301746b101283f0e42c63c17795284f2ce4b8660405161085a9190611113565b60405180910390a350505050565b6108b26040805160e0810190915260608152602081016000815260200160006001600160a01b03168152602001606081526020016060815260200160008152602001600081525090565b6000826040516108c29190610f19565b90815260200160405180910390206005015460000361091b5760405162461bcd60e51b81526020600482015260156024820152744c6f2068616e67206b686f6e6720746f6e2074616960581b604482015260640161016f565b60008260405161092b9190610f19565b90815260200160405180910390206040518060e001604052908160008201805461095490610f35565b80601f016020809104026020016040519081016040528092919081815260200182805461098090610f35565b80156109cd5780601f106109a2576101008083540402835291602001916109cd565b820191906000526020600020905b8154815290600101906020018083116109b057829003601f168201915b5050509183525050600182015460209091019060ff1660078111156109f4576109f4610dcc565b6007811115610a0557610a05610dcc565b8152600182015461010090046001600160a01b03166020820152600282018054604090920191610a3490610f35565b80601f0160208091040260200160405190810160405280929190818152602001828054610a6090610f35565b8015610aad5780601f10610a8257610100808354040283529160200191610aad565b820191906000526020600020905b815481529060010190602001808311610a9057829003601f168201915b50505050508152602001600382018054610ac690610f35565b80601f0160208091040260200160405190810160405280929190818152602001828054610af290610f35565b8015610b3f5780601f10610b1457610100808354040283529160200191610b3f565b820191906000526020600020905b815481529060010190602001808311610b2257829003601f168201915b50505050508152602001600482015481526020016005820154815250509050919050565b634e487b7160e01b600052604160045260246000fd5b600082601f830112610b8a57600080fd5b813567ffffffffffffffff80821115610ba557610ba5610b63565b604051601f8301601f19908116603f01168101908282118183101715610bcd57610bcd610b63565b81604052838152866020858801011115610be657600080fd5b836020870160208301376000602085830101528094505050505092915050565b60008060008060808587031215610c1c57600080fd5b843567ffffffffffffffff80821115610c3457600080fd5b610c4088838901610b79565b95506020870135915080821115610c5657600080fd5b610c6288838901610b79565b94506040870135915080821115610c7857600080fd5b50610c8587828801610b79565b949793965093946060013593505050565b60008060408385031215610ca957600080fd5b823567ffffffffffffffff811115610cc057600080fd5b610ccc85828601610b79565b925050602083013560088110610ce157600080fd5b809150509250929050565b60008060408385031215610cff57600080fd5b823567ffffffffffffffff811115610d1657600080fd5b610d2285828601610b79565b92505060208301356001600160a01b0381168114610ce157600080fd5b600060208284031215610d5157600080fd5b813567ffffffffffffffff811115610d6857600080fd5b610d7484828501610b79565b949350505050565b60005b83811015610d97578181015183820152602001610d7f565b50506000910152565b60008151808452610db8816020860160208601610d7c565b601f01601f19169290920160200192915050565b634e487b7160e01b600052602160045260246000fd5b60088110610e0057634e487b7160e01b600052602160045260246000fd5b9052565b602081526000825160e06020840152610e21610100840182610da0565b90506020840151610e356040850182610de2565b5060408401516001600160a01b0316606084810191909152840151838203601f199081016080860152610e688383610da0565b925060808601519150808584030160a086015250610e868282610da0565b91505060a084015160c084015260c084015160e08401528091505092915050565b600060208284031215610eb957600080fd5b81518015158114610ec957600080fd5b9392505050565b60208082526029908201527f546169206b686f616e2064616e67206269206b686f6120686f6163206b686f6e6040820152686720746f6e2074616960b81b606082015260800190565b60008251610f2b818460208701610d7c565b9190910192915050565b600181811c90821680610f4957607f821691505b602082108103610f6957634e487b7160e01b600052602260045260246000fd5b50919050565b601f821115610fb957600081815260208120601f850160051c81016020861015610f965750805b601f850160051c820191505b81811015610fb557828155600101610fa2565b5050505b505050565b815167ffffffffffffffff811115610fd857610fd8610b63565b610fec81610fe68454610f35565b84610f6f565b602080601f83116001811461102157600084156110095750858301515b600019600386901b1c1916600185901b178555610fb5565b600085815260208120601f198616915b8281101561105057888601518255948401946001909101908401611031565b508582101561106e5787850151600019600388901b60f8161c191681555b5050505050600190811b01905550565b6040815260006110916040830185610da0565b82810360208401526110a38185610da0565b95945050505050565b60208082526025908201527f42616e206b686f6e6720706861692063687520736f20687575206c6f2068616e60408201526467206e617960d81b606082015260800190565b6040815260006111046040830185610da0565b9050610ec96020830184610de2565b602081526000610ec96020830184610da056fea264697066735822122031fc5f6d0e8753bc0f084ca0e64dc9180418bb38cc11d1989f9c5908c0ba4a8864736f6c63430008140033",
  "linkReferences": {},
  "deployedLinkReferences": {}
}