{"contracts/BatchRegistry.sol":{"BatchRegistry":{"abi":[{"inputs":[{"internalType":"address","name":"_userRegistry","type":"address"}],"stateMutability":"nonpayable","type":"constructor"},{"anonymous":false,"inputs":[{"indexed":false,"internalType":"string","name":"batchId","type":"string"},{"indexed":false,"internalType":"string","name":"traceabilityCode","type":"string"},{"indexed":true,"internalType":"address","name":"creator","type":"address"}],"name":"BatchCreated","type":"event"},{"anonymous":false,"inputs":[{"indexed":false,"internalType":"string","name":"batchId","type":"string"},{"indexed":true,"internalType":"address","name":"from","type":"address"},{"indexed":true,"internalType":"address","name":"to","type":"address"}],"name":"BatchOwnershipTransferred","type":"event"},{"anonymous":false,"inputs":[{"indexed":false,"internalType":"string","name":"batchId","type":"string"},{"indexed":false,"internalType":"enum BatchRegistry.BatchStatus","name":"status","type":"uint8"}],"name":"BatchStatusUpdated","type":"event"},{"inputs":[{"internalType":"string","name":"_batchId","type":"string"},{"internalType":"string","name":"_traceabilityCode","type":"string"},{"internalType":"string","name":"_ipfsCid","type":"string"},{"internalType":"uint256","name":"_weight","type":"uint256"}],"name":"createBatch","outputs":[],"stateMutability":"nonpayable","type":"function"},{"inputs":[{"internalType":"string","name":"_batchId","type":"string"}],"name":"getBatch","outputs":[{"components":[{"internalType":"string","name":"batchId","type":"string"},{"internalType":"enum BatchRegistry.BatchStatus","name":"status","type":"uint8"},{"internalType":"address","name":"currentOwner","type":"address"},{"internalType":"string","name":"traceabilityCode","type":"string"},{"internalType":"string","name":"ipfsCid","type":"string"},{"internalType":"uint256","name":"weight","type":"uint256"},{"internalType":"uint256","name":"createdAt","type":"uint256"}],"internalType":"struct BatchRegistry.CoffeeBatch","name":"","type":"tuple"}],"stateMutability":"view","type":"function"},{"inputs":[{"internalType":"string","name":"_batchId","type":"string"},{"internalType":"address","name":"_to","type":"address"}],"name":"transferBatchOwnership","outputs":[],"stateMutability":"nonpayable","type":"function"},{"inputs":[{"internalType":"string","name":"_batchId","type":"string"},{"internalType":"enum BatchRegistry.BatchStatus","name":"_newStatus","type":"uint8"}],"name":"updateBatchStatus","outputs":[],"stateMutability":"nonpayable","type":"function"},{"inputs":[],"name":"userRegistryAddress","outputs":[{"internalType":"address","name":"","type":"address"}],"stateMutability":"view","type":"function"}],"evm":{"bytecode":{"linkReferences":{},"object":"608060405234801561001057600080fd5b506040516111ef3803806111ef83398101604081905261002f91610054565b600180546001600160a01b0319166001600160a01b0392909216919091179055610084565b60006020828403121561006657600080fd5b81516001600160a01b038116811461007d57600080fd5b9392505050565b61115c806100936000396000f3fe608060405234801561001057600080fd5b50600436106100575760003560e01c80633f39eaa11461005c578063454f91331461008c578063b50a3c87146100a1578063eee856c2146100b4578063f9ca4274146100c7575b600080fd5b60015461006f906001600160a01b031681565b6040516001600160a01b0390911681526020015b60405180910390f35b61009f61009a366004610c06565b6100e7565b005b61009f6100af366004610c96565b610410565b61009f6100c2366004610cec565b610578565b6100da6100d5366004610d3f565b610868565b6040516100839190610e04565b600154604051639f8a13d760e01b81523360048201526001600160a01b0390911690639f8a13d790602401602060405180830381865afa15801561012f573d6000803e3d6000fd5b505050506040513d601f19601f820116820180604052508101906101539190610ea7565b6101785760405162461bcd60e51b815260040161016f90610ed0565b60405180910390fd5b600180546040516395a8c58d60e01b815233600482015260248101929092526001600160a01b0316906395a8c58d90604401602060405180830381865afa1580156101c7573d6000803e3d6000fd5b505050506040513d601f19601f820116820180604052508101906101eb9190610ea7565b61024a5760405162461bcd60e51b815260206004820152602a60248201527f436869204e6f6e672044616e20284641524d455229206d6f692064756f632074604482015269616f206c6f2068616e6760b01b606482015260840161016f565b60008460405161025a9190610f19565b9081526020016040518091039020600501546000146102c95760405162461bcd60e51b815260206004820152602560248201527f4c6f2068616e67206e61792064612064756f63206b686f692074616f207472756044820152646f6320646f60d81b606482015260840161016f565b6040805160e081019091528481526020810160008152602001336001600160a01b03168152602001848152602001838152602001828152602001428152506000856040516103179190610f19565b908152604051908190036020019020815181906103349082610fbe565b50602082015160018083018054909160ff199091169083600781111561035c5761035c610dcc565b021790555060408201516001820180546001600160a01b0390921661010002610100600160a81b0319909216919091179055606082015160028201906103a29082610fbe565b50608082015160038201906103b79082610fbe565b5060a0820151600482015560c09091015160059091015560405133907f14a4819b534290cb8ccfb4060d5410e04c15b9493bccae224d5b9ae9e6f939d090610402908790879061107e565b60405180910390a250505050565b81336001600160a01b031660008260405161042b9190610f19565b908152604051908190036020019020600101546001600160a01b03610100909104161461046a5760405162461bcd60e51b815260040161016f906110ac565b600154604051639f8a13d760e01b81523360048201526001600160a01b0390911690639f8a13d790602401602060405180830381865afa1580156104b2573d6000803e3d6000fd5b505050506040513d601f19601f820116820180604052508101906104d69190610ea7565b6104f25760405162461bcd60e51b815260040161016f90610ed0565b816000846040516105039190610f19565b908152602001604051809103902060010160006101000a81548160ff0219169083600781111561053557610535610dcc565b02179055507f67299131a74fbf9a478b698dd6389d28f2a6c38727ebdafaedc6b1aeff674f11838360405161056b9291906110f1565b60405180910390a1505050565b81336001600160a01b03166000826040516105939190610f19565b908152604051908190036020019020600101546001600160a01b0361010090910416146105d25760405162461bcd60e51b815260040161016f906110ac565b600154604051639f8a13d760e01b81523360048201526001600160a01b0390911690639f8a13d790602401602060405180830381865afa15801561061a573d6000803e3d6000fd5b505050506040513d601f19601f8201168201806040525081019061063e9190610ea7565b61065a5760405162461bcd60e51b815260040161016f90610ed0565b6001600160a01b0382166106b05760405162461bcd60e51b815260206004820152601960248201527f44696120636869206e68616e206b686f6e6720686f70206c6500000000000000604482015260640161016f565b600154604051639f8a13d760e01b81526001600160a01b03848116600483015290911690639f8a13d790602401602060405180830381865afa1580156106fa573d6000803e3d6000fd5b505050506040513d601f19601f8201168201806040525081019061071e9190610ea7565b6107835760405162461bcd60e51b815260206004820152603060248201527f42656e206e68616e206869656e207461692064616e67206269206b686f61206860448201526f6f616320636875612064616e67206b7960801b606482015260840161016f565b6000339050826000856040516107999190610f19565b908152602001604051809103902060010160016101000a8154816001600160a01b0302191690836001600160a01b0316021790555060026000856040516107e09190610f19565b908152602001604051809103902060010160006101000a81548160ff0219169083600781111561081257610812610dcc565b0217905550826001600160a01b0316816001600160a01b03167feaf22fc804144c7c78e650d3a57a301746b101283f0e42c63c17795284f2ce4b8660405161085a9190611113565b60405180910390a350505050565b6108b26040805160e0810190915260608152602081016000815260200160006001600160a01b03168152602001606081526020016060815260200160008152602001600081525090565b6000826040516108c29190610f19565b90815260200160405180910390206005015460000361091b5760405162461bcd60e51b81526020600482015260156024820152744c6f2068616e67206b686f6e6720746f6e2074616960581b604482015260640161016f565b60008260405161092b9190610f19565b90815260200160405180910390206040518060e001604052908160008201805461095490610f35565b80601f016020809104026020016040519081016040528092919081815260200182805461098090610f35565b80156109cd5780601f106109a2576101008083540402835291602001916109cd565b820191906000526020600020905b8154815290600101906020018083116109b057829003601f168201915b5050509183525050600182015460209091019060ff1660078111156109f4576109f4610dcc565b6007811115610a0557610a05610dcc565b8152600182015461010090046001600160a01b03166020820152600282018054604090920191610a3490610f35565b80601f0160208091040260200160405190810160405280929190818152602001828054610a6090610f35565b8015610aad5780601f10610a8257610100808354040283529160200191610aad565b820191906000526020600020905b815481529060010190602001808311610a9057829003601f168201915b50505050508152602001600382018054610ac690610f35565b80601f0160208091040260200160405190810160405280929190818152602001828054610af290610f35565b8015610b3f5780601f10610b1457610100808354040283529160200191610b3f565b820191906000526020600020905b815481529060010190602001808311610b2257829003601f168201915b50505050508152602001600482015481526020016005820154815250509050919050565b634e487b7160e01b600052604160045260246000fd5b600082601f830112610b8a57600080fd5b813567ffffffffffffffff80821115610ba557610ba5610b63565b604051601f8301601f19908116603f01168101908282118183101715610bcd57610bcd610b63565b81604052838152866020858801011115610be657600080fd5b836020870160208301376000602085830101528094505050505092915050565b60008060008060808587031215610c1c57600080fd5b843567ffffffffffffffff80821115610c3457600080fd5b610c4088838901610b79565b95506020870135915080821115610c5657600080fd5b610c6288838901610b79565b94506040870135915080821115610c7857600080fd5b50610c8587828801610b79565b949793965093946060013593505050565b60008060408385031215610ca957600080fd5b823567ffffffffffffffff811115610cc057600080fd5b610ccc85828601610b79565b925050602083013560088110610ce157600080fd5b809150509250929050565b60008060408385031215610cff57600080fd5b823567ffffffffffffffff811115610d1657600080fd5b610d2285828601610b79565b92505060208301356001600160a01b0381168114610ce157600080fd5b600060208284031215610d5157600080fd5b813567ffffffffffffffff811115610d6857600080fd5b610d7484828501610b79565b949350505050565b60005b83811015610d97578181015183820152602001610d7f565b50506000910152565b60008151808452610db8816020860160208601610d7c565b601f01601f19169290920160200192915050565b634e487b7160e01b600052602160045260246000fd5b60088110610e0057634e487b7160e01b600052602160045260246000fd5b9052565b602081526000825160e06020840152610e21610100840182610da0565b90506020840151610e356040850182610de2565b5060408401516001600160a01b0316606084810191909152840151838203601f199081016080860152610e688383610da0565b925060808601519150808584030160a086015250610e868282610da0565b91505060a084015160c084015260c084015160e08401528091505092915050565b600060208284031215610eb957600080fd5b81518015158114610ec957600080fd5b9392505050565b60208082526029908201527f546169206b686f616e2064616e67206269206b686f6120686f6163206b686f6e6040820152686720746f6e2074616960b81b606082015260800190565b60008251610f2b818460208701610d7c565b9190910192915050565b600181811c90821680610f4957607f821691505b602082108103610f6957634e487b7160e01b600052602260045260246000fd5b50919050565b601f821115610fb957600081815260208120601f850160051c81016020861015610f965750805b601f850160051c820191505b81811015610fb557828155600101610fa2565b5050505b505050565b815167ffffffffffffffff811115610fd857610fd8610b63565b610fec81610fe68454610f35565b84610f6f565b602080601f83116001811461102157600084156110095750858301515b600019600386901b1c1916600185901b178555610fb5565b600085815260208120601f198616915b8281101561105057888601518255948401946001909101908401611031565b508582101561106e5787850151600019600388901b60f8161c191681555b5050505050600190811b01905550565b6040815260006110916040830185610da0565b82810360208401526110a38185610da0565b95945050505050565b60208082526025908201527f42616e206b686f6e6720706861692063687520736f20687575206c6f2068616e60408201526467206e617960d81b606082015260800190565b6040815260006111046040830185610da0565b9050610ec96020830184610de2565b602081526000610ec96020830184610da056fea264697066735822122031fc5f6d0e8753bc0f084ca0e64dc9180418bb38cc11d1989f9c5908c0ba4a8864736f6c63430008140033","opcodes":"PUSH1 0x80 PUSH1 0x40 MSTORE CALLVALUE DUP1 ISZERO PUSH2 0x10 JUMPI PUSH1 0x0 DUP1 REVERT JUMPDEST POP PUSH1 0x40 MLOAD PUSH2 0x11EF CODESIZE SUB DUP1 PUSH2 0x11EF DUP4 CODECOPY DUP2 ADD PUSH1 0x40 DUP2 SWAP1 MSTORE PUSH2 0x2F SWAP2 PUSH2 0x54 JUMP JUMPDEST PUSH1 0x1 DUP1 SLOAD PUSH1 0x1 PUSH1 0x1 PUSH1 0xA0 SHL SUB NOT AND PUSH1 0x1 PUSH1 0x1 PUSH1 0xA0 SHL SUB SWAP3 SWAP1 SWAP3 AND SWAP2 SWAP1 SWAP2 OR SWAP1 SSTORE PUSH2 0x84 JUMP JUMPDEST PUSH1 0x0 PUSH1 0x20 DUP3 DUP5 SUB SLT ISZERO PUSH2 0x66 JUMPI PUSH1 0x0 DUP1 REVERT JUMPDEST DUP2 MLOAD PUSH1 0x1 PUSH1 0x1 PUSH1 0xA0 SHL SUB DUP2 AND DUP2 EQ PUSH2 0x7D JUMPI PUSH1 0x0 DUP1 REVERT JUMPDEST SWAP4 SWAP3 POP POP POP JUMP JUMPDEST PUSH2 0x115C DUP1 PUSH2 0x93 PUSH1 0x0 CODECOPY PUSH1 0x0 RETURN INVALID PUSH1 0x80 PUSH1 0x40 MSTORE CALLVALUE DUP1 ISZERO PUSH2 0x10 JUMPI PUSH1 0x0 DUP1 REVERT JUMPDEST POP PUSH1 0x4 CALLDATASIZE LT PUSH2 0x57 JUMPI PUSH1 0x0 CALLDATALOAD PUSH1 0xE0 SHR DUP1 PUSH4 0x3F39EAA1 EQ PUSH2 0x5C JUMPI DUP1 PUSH4 0x454F9133 EQ PUSH2 0x8C JUMPI DUP1 PUSH4 0xB50A3C87 EQ PUSH2 0xA1 JUMPI DUP1 PUSH4 0xEEE856C2 EQ PUSH2 0xB4 JUMPI DUP1 PUSH4 0xF9CA4274 EQ PUSH2 0xC7 JUMPI JUMPDEST PUSH1 0x0 DUP1 REVERT JUMPDEST PUSH1 0x1 SLOAD PUSH2 0x6F SWAP1 PUSH1 0x1 PUSH1 0x1 PUSH1 0xA0 SHL SUB AND DUP2 JUMP JUMPDEST PUSH1 0x40 MLOAD PUSH1 0x1 PUSH1 0x1 PUSH1 0xA0 SHL SUB SWAP1 SWAP2 AND DUP2 MSTORE PUSH1 0x20 ADD JUMPDEST PUSH1 0x40 MLOAD DUP1 SWAP2 SUB SWAP1 RETURN JUMPDEST PUSH2 0x9F PUSH2 0x9A CALLDATASIZE PUSH1 0x4 PUSH2 0xC06 JUMP JUMPDEST PUSH2 0xE7 JUMP JUMPDEST STOP JUMPDEST PUSH2 0x9F PUSH2 0xAF CALLDATASIZE PUSH1 0x4 PUSH2 0xC96 JUMP JUMPDEST PUSH2 0x410 JUMP JUMPDEST PUSH2 0x9F PUSH2 0xC2 CALLDATASIZE PUSH1 0x4 PUSH2 0xCEC JUMP JUMPDEST PUSH2 0x578 JUMP JUMPDEST PUSH2 0xDA PUSH2 0xD5 CALLDATASIZE PUSH1 0x4 PUSH2 0xD3F JUMP JUMPDEST PUSH2 0x868 JUMP JUMPDEST PUSH1 0x40 MLOAD PUSH2 0x83 SWAP2 SWAP1 PUSH2 0xE04 JUMP JUMPDEST PUSH1 0x1 SLOAD PUSH1 0x40 MLOAD PUSH4 0x9F8A13D7 PUSH1 0xE0 SHL DUP2 MSTORE CALLER PUSH1 0x4 DUP3 ADD MSTORE PUSH1 0x1 PUSH1 0x1 PUSH1 0xA0 SHL SUB SWAP1 SWAP2 AND SWAP1 PUSH4 0x9F8A13D7 SWAP1 PUSH1 0x24 ADD PUSH1 0x20 PUSH1 0x40 MLOAD DUP1 DUP4 SUB DUP2 DUP7 GAS STATICCALL ISZERO DUP1 ISZERO PUSH2 0x12F JUMPI RETURNDATASIZE PUSH1 0x0 DUP1 RETURNDATACOPY RETURNDATASIZE PUSH1 0x0 REVERT JUMPDEST POP POP POP POP PUSH1 0x40 MLOAD RETURNDATASIZE PUSH1 0x1F NOT PUSH1 0x1F DUP3 ADD AND DUP3 ADD DUP1 PUSH1 0x40 MSTORE POP DUP2 ADD SWAP1 PUSH2 0x153 SWAP2 SWAP1 PUSH2 0xEA7 JUMP JUMPDEST PUSH2 0x178 JUMPI PUSH1 0x40 MLOAD PUSH3 0x461BCD PUSH1 0xE5 SHL DUP2 MSTORE PUSH1 0x4 ADD PUSH2 0x16F SWAP1 PUSH2 0xED0 JUMP JUMPDEST PUSH1 0x40 MLOAD DUP1 SWAP2 SUB SWAP1 REVERT JUMPDEST PUSH1 0x1 DUP1 SLOAD PUSH1 0x40 MLOAD PUSH4 0x95A8C58D PUSH1 0xE0 SHL DUP2 MSTORE CALLER PUSH1 0x4 DUP3 ADD MSTORE PUSH1 0x24 DUP2 ADD SWAP3 SWAP1 SWAP3 MSTORE PUSH1 0x1 PUSH1 0x1 PUSH1 0xA0 SHL SUB AND SWAP1 PUSH4 0x95A8C58D SWAP1 PUSH1 0x44 ADD PUSH1 0x20 PUSH1 0x40 MLOAD DUP1 DUP4 SUB DUP2 DUP7 GAS STATICCALL ISZERO DUP1 ISZERO PUSH2 0x1C7 JUMPI RETURNDATASIZE PUSH1 0x0 DUP1 RETURNDATACOPY RETURNDATASIZE PUSH1 0x0 REVERT JUMPDEST POP POP POP POP PUSH1 0x40 MLOAD RETURNDATASIZE PUSH1 0x1F NOT PUSH1 0x1F DUP3 ADD AND DUP3 ADD DUP1 PUSH1 0x40 MSTORE POP DUP2 ADD SWAP1 PUSH2 0x1EB SWAP2 SWAP1 PUSH2 0xEA7 JUMP JUMPDEST PUSH2 0x24A JUMPI PUSH1 0x40 MLOAD PUSH3 0x461BCD PUSH1 0xE5 SHL DUP2 MSTORE PUSH1 0x20 PUSH1 0x4 DUP3 ADD MSTORE PUSH1 0x2A PUSH1 0x24 DUP3 ADD MSTORE PUSH32 0x436869204E6F6E672044616E20284641524D455229206D6F692064756F632074 PUSH1 0x44 DUP3 ADD MSTORE PUSH10 0x616F206C6F2068616E67 PUSH1 0xB0 SHL PUSH1 0x64 DUP3 ADD MSTORE PUSH1 0x84 ADD PUSH2 0x16F JUMP JUMPDEST PUSH1 0x0 DUP5 PUSH1 0x40 MLOAD PUSH2 0x25A SWAP2 SWAP1 PUSH2 0xF19 JUMP JUMPDEST SWAP1 DUP2 MSTORE PUSH1 0x20 ADD PUSH1 0x40 MLOAD DUP1 SWAP2 SUB SWAP1 KECCAK256 PUSH1 0x5 ADD SLOAD PUSH1 0x0 EQ PUSH2 0x2C9 JUMPI PUSH1 0x40 MLOAD PUSH3 0x461BCD PUSH1 0xE5 SHL DUP2 MSTORE PUSH1 0x20 PUSH1 0x4 DUP3 ADD MSTORE PUSH1 0x25 PUSH1 0x24 DUP3 ADD MSTORE PUSH32 0x4C6F2068616E67206E61792064612064756F63206B686F692074616F20747275 PUSH1 0x44 DUP3 ADD MSTORE PUSH5 0x6F6320646F PUSH1 0xD8 SHL PUSH1 0x64 DUP3 ADD MSTORE PUSH1 0x84 ADD PUSH2 0x16F JUMP JUMPDEST PUSH1 0x40 DUP1 MLOAD PUSH1 0xE0 DUP2 ADD SWAP1 SWAP2 MSTORE DUP5 DUP2 MSTORE PUSH1 0x20 DUP2 ADD PUSH1 0x0 DUP2 MSTORE PUSH1 0x20 ADD CALLER PUSH1 0x1 PUSH1 0x1 PUSH1 0xA0 SHL SUB AND DUP2 MSTORE PUSH1 0x20 ADD DUP5 DUP2 MSTORE PUSH1 0x20 ADD DUP4 DUP2 MSTORE PUSH1 0x20 ADD DUP3 DUP2 MSTORE PUSH1 0x20 ADD TIMESTAMP DUP2 MSTORE POP PUSH1 0x0 DUP6 PUSH1 0x40 MLOAD PUSH2 0x317 SWAP2 SWAP1 PUSH2 0xF19 JUMP JUMPDEST SWAP1 DUP2 MSTORE PUSH1 0x40 MLOAD SWAP1 DUP2 SWAP1 SUB PUSH1 0x20 ADD SWAP1 KECCAK256 DUP2 MLOAD DUP2 SWAP1 PUSH2 0x334 SWAP1 DUP3 PUSH2 0xFBE JUMP JUMPDEST POP PUSH1 0x20 DUP3 ADD MLOAD PUSH1 0x1 DUP1 DUP4 ADD DUP1 SLOAD SWAP1 SWAP2 PUSH1 0xFF NOT SWAP1 SWAP2 AND SWAP1 DUP4 PUSH1 0x7 DUP2 GT ISZERO PUSH2 0x35C JUMPI PUSH2 0x35C PUSH2 0xDCC JUMP JUMPDEST MUL OR SWAP1 SSTORE POP PUSH1 0x40 DUP3 ADD MLOAD PUSH1 0x1 DUP3 ADD DUP1 SLOAD PUSH1 0x1 PUSH1 0x1 PUSH1 0xA0 SHL SUB SWAP1 SWAP3 AND PUSH2 0x100 MUL PUSH2 0x100 PUSH1 0x1 PUSH1 0xA8 SHL SUB NOT SWAP1 SWAP3 AND SWAP2 SWAP1 SWAP2 OR SWAP1 SSTORE PUSH1 0x60 DUP3 ADD MLOAD PUSH1 0x2 DUP3 ADD SWAP1 PUSH2 0x3A2 SWAP1 DUP3 PUSH2 0xFBE JUMP JUMPDEST POP PUSH1 0x80 DUP3 ADD MLOAD PUSH1 0x3 DUP3 ADD SWAP1 PUSH2 0x3B7 SWAP1 DUP3 PUSH2 0xFBE JUMP JUMPDEST POP PUSH1 0xA0 DUP3 ADD MLOAD PUSH1 0x4 DUP3 ADD SSTORE PUSH1 0xC0 SWAP1 SWAP2 ADD MLOAD PUSH1 0x5 SWAP1 SWAP2 ADD SSTORE PUSH1 0x40 MLOAD CALLER SWAP1 PUSH32 0x14A4819B534290CB8CCFB4060D5410E04C15B9493BCCAE224D5B9AE9E6F939D0 SWAP1 PUSH2 0x402 SWAP1 DUP8 SWAP1 DUP8 SWAP1 PUSH2 0x107E JUMP JUMPDEST PUSH1 0x40 MLOAD DUP1 SWAP2 SUB SWAP1 LOG2 POP POP POP POP JUMP JUMPDEST DUP2 CALLER PUSH1 0x1 PUSH1 0x1 PUSH1 0xA0 SHL SUB AND PUSH1 0x0 DUP3 PUSH1 0x40 MLOAD PUSH2 0x42B SWAP2 SWAP1 PUSH2 0xF19 JUMP JUMPDEST SWAP1 DUP2 MSTORE PUSH1 0x40 MLOAD SWAP1 DUP2 SWAP1 SUB PUSH1 0x20 ADD SWAP1 KECCAK256 PUSH1 0x1 ADD SLOAD PUSH1 0x1 PUSH1 0x1 PUSH1 0xA0 SHL SUB PUSH2 0x100 SWAP1 SWAP2 DIV AND EQ PUSH2 0x46A JUMPI PUSH1 0x40 MLOAD PUSH3 0x461BCD PUSH1 0xE5 SHL DUP2 MSTORE PUSH1 0x4 ADD PUSH2 0x16F SWAP1 PUSH2 0x10AC JUMP JUMPDEST PUSH1 0x1 SLOAD PUSH1 0x40 MLOAD PUSH4 0x9F8A13D7 PUSH1 0xE0 SHL DUP2 MSTORE CALLER PUSH1 0x4 DUP3 ADD MSTORE PUSH1 0x1 PUSH1 0x1 PUSH1 0xA0 SHL SUB SWAP1 SWAP2 AND SWAP1 PUSH4 0x9F8A13D7 SWAP1 PUSH1 0x24 ADD PUSH1 0x20 PUSH1 0x40 MLOAD DUP1 DUP4 SUB DUP2 DUP7 GAS STATICCALL ISZERO DUP1 ISZERO PUSH2 0x4B2 JUMPI RETURNDATASIZE PUSH1 0x0 DUP1 RETURNDATACOPY RETURNDATASIZE PUSH1 0x0 REVERT JUMPDEST POP POP POP POP PUSH1 0x40 MLOAD RETURNDATASIZE PUSH1 0x1F NOT PUSH1 0x1F DUP3 ADD AND DUP3 ADD DUP1 PUSH1 0x40 MSTORE POP DUP2 ADD SWAP1 PUSH2 0x4D6 SWAP2 SWAP1 PUSH2 0xEA7 JUMP JUMPDEST PUSH2 0x4F2 JUMPI PUSH1 0x40 MLOAD PUSH3 0x461BCD PUSH1 0xE5 SHL DUP2 MSTORE PUSH1 0x4 ADD PUSH2 0x16F SWAP1 PUSH2 0xED0 JUMP JUMPDEST DUP2 PUSH1 0x0 DUP5 PUSH1 0x40 MLOAD PUSH2 0x503 SWAP2 SWAP1 PUSH2 0xF19 JUMP JUMPDEST SWAP1 DUP2 MSTORE PUSH1 0x20 ADD PUSH1 0x40 MLOAD DUP1 SWAP2 SUB SWAP1 KECCAK256 PUSH1 0x1 ADD PUSH1 0x0 PUSH2 0x100 EXP DUP2 SLOAD DUP2 PUSH1 0xFF MUL NOT AND SWAP1 DUP4 PUSH1 0x7 DUP2 GT ISZERO PUSH2 0x535 JUMPI PUSH2 0x535 PUSH2 0xDCC JUMP JUMPDEST MUL OR SWAP1 SSTORE POP PUSH32 0x67299131A74FBF9A478B698DD6389D28F2A6C38727EBDAFAEDC6B1AEFF674F11 DUP4 DUP4 PUSH1 0x40 MLOAD PUSH2 0x56B SWAP3 SWAP2 SWAP1 PUSH2 0x10F1 JUMP JUMPDEST PUSH1 0x40 MLOAD DUP1 SWAP2 SUB SWAP1 LOG1 POP POP POP JUMP JUMPDEST DUP2 CALLER PUSH1 0x1 PUSH1 0x1 PUSH1 0xA0 SHL SUB AND PUSH1 0x0 DUP3 PUSH1 0x40 MLOAD PUSH2 0x593 SWAP2 SWAP1 PUSH2 0xF19 JUMP JUMPDEST SWAP1 DUP2 MSTORE PUSH1 0x40 MLOAD SWAP1 DUP2 SWAP1 SUB PUSH1 0x20 ADD SWAP1 KECCAK256 PUSH1 0x1 ADD SLOAD PUSH1 0x1 PUSH1 0x1 PUSH1 0xA0 SHL SUB PUSH2 0x100 SWAP1 SWAP2 DIV AND EQ PUSH2 0x5D2 JUMPI PUSH1 0x40 MLOAD PUSH3 0x461BCD PUSH1 0xE5 SHL DUP2 MSTORE PUSH1 0x4 ADD PUSH2 0x16F SWAP1 PUSH2 0x10AC JUMP JUMPDEST PUSH1 0x1 SLOAD PUSH1 0x40 MLOAD PUSH4 0x9F8A13D7 PUSH1 0xE0 SHL DUP2 MSTORE CALLER PUSH1 0x4 DUP3 ADD MSTORE PUSH1 0x1 PUSH1 0x1 PUSH1 0xA0 SHL SUB SWAP1 SWAP2 AND SWAP1 PUSH4 0x9F8A13D7 SWAP1 PUSH1 0x24 ADD PUSH1 0x20 PUSH1 0x40 MLOAD DUP1 DUP4 SUB DUP2 DUP7 GAS STATICCALL ISZERO DUP1 ISZERO PUSH2 0x61A JUMPI RETURNDATASIZE PUSH1 0x0 DUP1 RETURNDATACOPY RETURNDATASIZE PUSH1 0x0 REVERT JUMPDEST POP POP POP POP PUSH1 0x40 MLOAD RETURNDATASIZE PUSH1 0x1F NOT PUSH1 0x1F DUP3 ADD AND DUP3 ADD DUP1 PUSH1 0x40 MSTORE POP DUP2 ADD SWAP1 PUSH2 0x63E SWAP2 SWAP1 PUSH2 0xEA7 JUMP JUMPDEST PUSH2 0x65A JUMPI PUSH1 0x40 MLOAD PUSH3 0x461BCD PUSH1 0xE5 SHL DUP2 MSTORE PUSH1 0x4 ADD PUSH2 0x16F SWAP1 PUSH2 0xED0 JUMP JUMPDEST PUSH1 0x1 PUSH1 0x1 PUSH1 0xA0 SHL SUB DUP3 AND PUSH2 0x6B0 JUMPI PUSH1 0x40 MLOAD PUSH3 0x461BCD PUSH1 0xE5 SHL DUP2 MSTORE PUSH1 0x20 PUSH1 0x4 DUP3 ADD MSTORE PUSH1 0x19 PUSH1 0x24 DUP3 ADD MSTORE PUSH32 0x44696120636869206E68616E206B686F6E6720686F70206C6500000000000000 PUSH1 0x44 DUP3 ADD MSTORE PUSH1 0x64 ADD PUSH2 0x16F JUMP JUMPDEST PUSH1 0x1 SLOAD PUSH1 0x40 MLOAD PUSH4 0x9F8A13D7 PUSH1 0xE0 SHL DUP2 MSTORE PUSH1 0x1 PUSH1 0x1 PUSH1 0xA0 SHL SUB DUP5 DUP2 AND PUSH1 0x4 DUP4 ADD MSTORE SWAP1 SWAP2 AND SWAP1 PUSH4 0x9F8A13D7 SWAP1 PUSH1 0x24 ADD PUSH1 0x20 PUSH1 0x40 MLOAD DUP1 DUP4 SUB DUP2 DUP7 GAS STATICCALL ISZERO DUP1 ISZERO PUSH2 0x6FA JUMPI RETURNDATASIZE PUSH1 0x0 DUP1 RETURNDATACOPY RETURNDATASIZE PUSH1 0x0 REVERT JUMPDEST POP POP POP POP PUSH1 0x40 MLOAD RETURNDATASIZE PUSH1 0x1F NOT PUSH1 0x1F DUP3 ADD AND DUP3 ADD DUP1 PUSH1 0x40 MSTORE POP DUP2 ADD SWAP1 PUSH2 0x71E SWAP2 SWAP1 PUSH2 0xEA7 JUMP JUMPDEST PUSH2 0x783 JUMPI PUSH1 0x40 MLOAD PUSH3 0x461BCD PUSH1 0xE5 SHL DUP2 MSTORE PUSH1 0x20 PUSH1 0x4 DUP3 ADD MSTORE PUSH1 0x30 PUSH1 0x24 DUP3 ADD MSTORE PUSH32 0x42656E206E68616E206869656E207461692064616E67206269206B686F612068 PUSH1 0x44 DUP3 ADD MSTORE PUSH16 0x6F616320636875612064616E67206B79 PUSH1 0x80 SHL PUSH1 0x64 DUP3 ADD MSTORE PUSH1 0x84 ADD PUSH2 0x16F JUMP JUMPDEST PUSH1 0x0 CALLER SWAP1 POP DUP3 PUSH1 0x0 DUP6 PUSH1 0x40 MLOAD PUSH2 0x799 SWAP2 SWAP1 PUSH2 0xF19 JUMP JUMPDEST SWAP1 DUP2 MSTORE PUSH1 0x20 ADD PUSH1 0x40 MLOAD DUP1 SWAP2 SUB SWAP1 KECCAK256 PUSH1 0x1 ADD PUSH1 0x1 PUSH2 0x100 EXP DUP2 SLOAD DUP2 PUSH1 0x1 PUSH1 0x1 PUSH1 0xA0 SHL SUB MUL NOT AND SWAP1 DUP4 PUSH1 0x1 PUSH1 0x1 PUSH1 0xA0 SHL SUB AND MUL OR SWAP1 SSTORE POP PUSH1 0x2 PUSH1 0x0 DUP6 PUSH1 0x40 MLOAD PUSH2 0x7E0 SWAP2 SWAP1 PUSH2 0xF19 JUMP JUMPDEST SWAP1 DUP2 MSTORE PUSH1 0x20 ADD PUSH1 0x40 MLOAD DUP1 SWAP2 SUB SWAP1 KECCAK256 PUSH1 0x1 ADD PUSH1 0x0 PUSH2 0x100 EXP DUP2 SLOAD DUP2 PUSH1 0xFF MUL NOT AND SWAP1 DUP4 PUSH1 0x7 DUP2 GT ISZERO PUSH2 0x812 JUMPI PUSH2 0x812 PUSH2 0xDCC JUMP JUMPDEST MUL OR SWAP1 SSTORE POP DUP3 PUSH1 0x1 PUSH1 0x1 PUSH1 0xA0 SHL SUB AND DUP2 PUSH1 0x1 PUSH1 0x1 PUSH1 0xA0 SHL SUB AND PUSH32 0xEAF22FC804144C7C78E650D3A57A301746B101283F0E42C63C17795284F2CE4B DUP7 PUSH1 0x40 MLOAD PUSH2 0x85A SWAP2 SWAP1 PUSH2 0x1113 JUMP JUMPDEST PUSH1 0x40 MLOAD DUP1 SWAP2 SUB SWAP1 LOG3 POP POP POP POP JUMP JUMPDEST PUSH2 0x8B2 PUSH1 0x40 DUP1 MLOAD PUSH1 0xE0 DUP2 ADD SWAP1 SWAP2 MSTORE PUSH1 0x60 DUP2 MSTORE PUSH1 0x20 DUP2 ADD PUSH1 0x0 DUP2 MSTORE PUSH1 0x20 ADD PUSH1 0x0 PUSH1 0x1 PUSH1 0x1 PUSH1 0xA0 SHL SUB AND DUP2 MSTORE PUSH1 0x20 ADD PUSH1 0x60 DUP2 MSTORE PUSH1 0x20 ADD PUSH1 0x60 DUP2 MSTORE PUSH1 0x20 ADD PUSH1 0x0 DUP2 MSTORE PUSH1 0x20 ADD PUSH1 0x0 DUP2 MSTORE POP SWAP1 JUMP JUMPDEST PUSH1 0x0 DUP3 PUSH1 0x40 MLOAD PUSH2 0x8C2 SWAP2 SWAP1 PUSH2 0xF19 JUMP JUMPDEST SWAP1 DUP2 MSTORE PUSH1 0x20 ADD PUSH1 0x40 MLOAD DUP1 SWAP2 SUB SWAP1 KECCAK256 PUSH1 0x5 ADD SLOAD PUSH1 0x0 SUB PUSH2 0x91B JUMPI PUSH1 0x40 MLOAD PUSH3 0x461BCD PUSH1 0xE5 SHL DUP2 MSTORE PUSH1 0x20 PUSH1 0x4 DUP3 ADD MSTORE PUSH1 0x15 PUSH1 0x24 DUP3 ADD MSTORE PUSH21 0x4C6F2068616E67206B686F6E6720746F6E20746169 PUSH1 0x58 SHL PUSH1 0x44 DUP3 ADD MSTORE PUSH1 0x64 ADD PUSH2 0x16F JUMP JUMPDEST PUSH1 0x0 DUP3 PUSH1 0x40 MLOAD PUSH2 0x92B SWAP2 SWAP1 PUSH2 0xF19 JUMP JUMPDEST SWAP1 DUP2 MSTORE PUSH1 0x20 ADD PUSH1 0x40 MLOAD DUP1 SWAP2 SUB SWAP1 KECCAK256 PUSH1 0x40 MLOAD DUP1 PUSH1 0xE0 ADD PUSH1 0x40 MSTORE SWAP1 DUP2 PUSH1 0x0 DUP3 ADD DUP1 SLOAD PUSH2 0x954 SWAP1 PUSH2 0xF35 JUMP JUMPDEST DUP1 PUSH1 0x1F ADD PUSH1 0x20 DUP1 SWAP2 DIV MUL PUSH1 0x20 ADD PUSH1 0x40 MLOAD SWAP1 DUP2 ADD PUSH1 0x40 MSTORE DUP1 SWAP3 SWAP2 SWAP1 DUP2 DUP2 MSTORE PUSH1 0x20 ADD DUP3 DUP1 SLOAD PUSH2 0x980 SWAP1 PUSH2 0xF35 JUMP JUMPDEST DUP1 ISZERO PUSH2 0x9CD JUMPI DUP1 PUSH1 0x1F LT PUSH2 0x9A2 JUMPI PUSH2 0x100 DUP1 DUP4 SLOAD DIV MUL DUP4 MSTORE SWAP2 PUSH1 0x20 ADD SWAP2 PUSH2 0x9CD JUMP JUMPDEST DUP3 ADD SWAP2 SWAP1 PUSH1 0x0 MSTORE PUSH1 0x20 PUSH1 0x0 KECCAK256 SWAP1 JUMPDEST DUP2 SLOAD DUP2 MSTORE SWAP1 PUSH1 0x1 ADD SWAP1 PUSH1 0x20 ADD DUP1 DUP4 GT PUSH2 0x9B0 JUMPI DUP3 SWAP1 SUB PUSH1 0x1F AND DUP3 ADD SWAP2 JUMPDEST POP POP POP SWAP2 DUP4 MSTORE POP POP PUSH1 0x1 DUP3 ADD SLOAD PUSH1 0x20 SWAP1 SWAP2 ADD SWAP1 PUSH1 0xFF AND PUSH1 0x7 DUP2 GT ISZERO PUSH2 0x9F4 JUMPI PUSH2 0x9F4 PUSH2 0xDCC JUMP JUMPDEST PUSH1 0x7 DUP2 GT ISZERO PUSH2 0xA05 JUMPI PUSH2 0xA05 PUSH2 0xDCC JUMP JUMPDEST DUP2 MSTORE PUSH1 0x1 DUP3 ADD SLOAD PUSH2 0x100 SWAP1 DIV PUSH1 0x1 PUSH1 0x1 PUSH1 0xA0 SHL SUB AND PUSH1 0x20 DUP3 ADD MSTORE PUSH1 0x2 DUP3 ADD DUP1 SLOAD PUSH1 0x40 SWAP1 SWAP3 ADD SWAP2 PUSH2 0xA34 SWAP1 PUSH2 0xF35 JUMP JUMPDEST DUP1 PUSH1 0x1F ADD PUSH1 0x20 DUP1 SWAP2 DIV MUL PUSH1 0x20 ADD PUSH1 0x40 MLOAD SWAP1 DUP2 ADD PUSH1 0x40 MSTORE DUP1 SWAP3 SWAP2 SWAP1 DUP2 DUP2 MSTORE PUSH1 0x20 ADD DUP3 DUP1 SLOAD PUSH2 0xA60 SWAP1 PUSH2 0xF35 JUMP JUMPDEST DUP1 ISZERO PUSH2 0xAAD JUMPI DUP1 PUSH1 0x1F LT PUSH2 0xA82 JUMPI PUSH2 0x100 DUP1 DUP4 SLOAD DIV MUL DUP4 MSTORE SWAP2 PUSH1 0x20 ADD SWAP2 PUSH2 0xAAD JUMP JUMPDEST DUP3 ADD SWAP2 SWAP1 PUSH1 0x0 MSTORE PUSH1 0x20 PUSH1 0x0 KECCAK256 SWAP1 JUMPDEST DUP2 SLOAD DUP2 MSTORE SWAP1 PUSH1 0x1 ADD SWAP1 PUSH1 0x20 ADD DUP1 DUP4 GT PUSH2 0xA90 JUMPI DUP3 SWAP1 SUB PUSH1 0x1F AND DUP3 ADD SWAP2 JUMPDEST POP POP POP POP POP DUP2 MSTORE PUSH1 0x20 ADD PUSH1 0x3 DUP3 ADD DUP1 SLOAD PUSH2 0xAC6 SWAP1 PUSH2 0xF35 JUMP JUMPDEST DUP1 PUSH1 0x1F ADD PUSH1 0x20 DUP1 SWAP2 DIV MUL PUSH1 0x20 ADD PUSH1 0x40 MLOAD SWAP1 DUP2 ADD PUSH1 0x40 MSTORE DUP1 SWAP3 SWAP2 SWAP1 DUP2 DUP2 MSTORE PUSH1 0x20 ADD DUP3 DUP1 SLOAD PUSH2 0xAF2 SWAP1 PUSH2 0xF35 JUMP JUMPDEST DUP1 ISZERO PUSH2 0xB3F JUMPI DUP1 PUSH1 0x1F LT PUSH2 0xB14 JUMPI PUSH2 0x100 DUP1 DUP4 SLOAD DIV MUL DUP4 MSTORE SWAP2 PUSH1 0x20 ADD SWAP2 PUSH2 0xB3F JUMP JUMPDEST DUP3 ADD SWAP2 SWAP1 PUSH1 0x0 MSTORE PUSH1 0x20 PUSH1 0x0 KECCAK256 SWAP1 JUMPDEST DUP2 SLOAD DUP2 MSTORE SWAP1 PUSH1 0x1 ADD SWAP1 PUSH1 0x20 ADD DUP1 DUP4 GT PUSH2 0xB22 JUMPI DUP3 SWAP1 SUB PUSH1 0x1F AND DUP3 ADD SWAP2 JUMPDEST POP POP POP POP POP DUP2 MSTORE PUSH1 0x20 ADD PUSH1 0x4 DUP3 ADD SLOAD DUP2 MSTORE PUSH1 0x20 ADD PUSH1 0x5 DUP3 ADD SLOAD DUP2 MSTORE POP POP SWAP1 POP SWAP2 SWAP1 POP JUMP JUMPDEST PUSH4 0x4E487B71 PUSH1 0xE0 SHL PUSH1 0x0 MSTORE PUSH1 0x41 PUSH1 0x4 MSTORE PUSH1 0x24 PUSH1 0x0 REVERT JUMPDEST PUSH1 0x0 DUP3 PUSH1 0x1F DUP4 ADD SLT PUSH2 0xB8A JUMPI PUSH1 0x0 DUP1 REVERT JUMPDEST DUP2 CALLDATALOAD PUSH8 0xFFFFFFFFFFFFFFFF DUP1 DUP3 GT ISZERO PUSH2 0xBA5 JUMPI PUSH2 0xBA5 PUSH2 0xB63 JUMP JUMPDEST PUSH1 0x40 MLOAD PUSH1 0x1F DUP4 ADD PUSH1 0x1F NOT SWAP1 DUP2 AND PUSH1 0x3F ADD AND DUP2 ADD SWAP1 DUP3 DUP3 GT DUP2 DUP4 LT OR ISZERO PUSH2 0xBCD JUMPI PUSH2 0xBCD PUSH2 0xB63 JUMP JUMPDEST DUP2 PUSH1 0x40 MSTORE DUP4 DUP2 MSTORE DUP7 PUSH1 0x20 DUP6 DUP9 ADD ADD GT ISZERO PUSH2 0xBE6 JUMPI PUSH1 0x0 DUP1 REVERT JUMPDEST DUP4 PUSH1 0x20 DUP8 ADD PUSH1 0x20 DUP4 ADD CALLDATACOPY PUSH1 0x0 PUSH1 0x20 DUP6 DUP4 ADD ADD MSTORE DUP1 SWAP5 POP POP POP POP POP SWAP3 SWAP2 POP POP JUMP JUMPDEST PUSH1 0x0 DUP1 PUSH1 0x0 DUP1 PUSH1 0x80 DUP6 DUP8 SUB SLT ISZERO PUSH2 0xC1C JUMPI PUSH1 0x0 DUP1 REVERT JUMPDEST DUP5 CALLDATALOAD PUSH8 0xFFFFFFFFFFFFFFFF DUP1 DUP3 GT ISZERO PUSH2 0xC34 JUMPI PUSH1 0x0 DUP1 REVERT JUMPDEST PUSH2 0xC40 DUP9 DUP4 DUP10 ADD PUSH2 0xB79 JUMP JUMPDEST SWAP6 POP PUSH1 0x20 DUP8 ADD CALLDATALOAD SWAP2 POP DUP1 DUP3 GT ISZERO PUSH2 0xC56 JUMPI PUSH1 0x0 DUP1 REVERT JUMPDEST PUSH2 0xC62 DUP9 DUP4 DUP10 ADD PUSH2 0xB79 JUMP JUMPDEST SWAP5 POP PUSH1 0x40 DUP8 ADD CALLDATALOAD SWAP2 POP DUP1 DUP3 GT ISZERO PUSH2 0xC78 JUMPI PUSH1 0x0 DUP1 REVERT JUMPDEST POP PUSH2 0xC85 DUP8 DUP3 DUP9 ADD PUSH2 0xB79 JUMP JUMPDEST SWAP5 SWAP8 SWAP4 SWAP7 POP SWAP4 SWAP5 PUSH1 0x60 ADD CALLDATALOAD SWAP4 POP POP POP JUMP JUMPDEST PUSH1 0x0 DUP1 PUSH1 0x40 DUP4 DUP6 SUB SLT ISZERO PUSH2 0xCA9 JUMPI PUSH1 0x0 DUP1 REVERT JUMPDEST DUP3 CALLDATALOAD PUSH8 0xFFFFFFFFFFFFFFFF DUP2 GT ISZERO PUSH2 0xCC0 JUMPI PUSH1 0x0 DUP1 REVERT JUMPDEST PUSH2 0xCCC DUP6 DUP3 DUP7 ADD PUSH2 0xB79 JUMP JUMPDEST SWAP3 POP POP PUSH1 0x20 DUP4 ADD CALLDATALOAD PUSH1 0x8 DUP2 LT PUSH2 0xCE1 JUMPI PUSH1 0x0 DUP1 REVERT JUMPDEST DUP1 SWAP2 POP POP SWAP3 POP SWAP3 SWAP1 POP JUMP JUMPDEST PUSH1 0x0 DUP1 PUSH1 0x40 DUP4 DUP6 SUB SLT ISZERO PUSH2 0xCFF JUMPI PUSH1 0x0 DUP1 REVERT JUMPDEST DUP3 CALLDATALOAD PUSH8 0xFFFFFFFFFFFFFFFF DUP2 GT ISZERO PUSH2 0xD16 JUMPI PUSH1 0x0 DUP1 REVERT JUMPDEST PUSH2 0xD22 DUP6 DUP3 DUP7 ADD PUSH2 0xB79 JUMP JUMPDEST SWAP3 POP POP PUSH1 0x20 DUP4 ADD CALLDATALOAD PUSH1 0x1 PUSH1 0x1 PUSH1 0xA0 SHL SUB DUP2 AND DUP2 EQ PUSH2 0xCE1 JUMPI PUSH1 0x0 DUP1 REVERT JUMPDEST PUSH1 0x0 PUSH1 0x20 DUP3 DUP5 SUB SLT ISZERO PUSH2 0xD51 JUMPI PUSH1 0x0 DUP1 REVERT JUMPDEST DUP2 CALLDATALOAD PUSH8 0xFFFFFFFFFFFFFFFF DUP2 GT ISZERO PUSH2 0xD68 JUMPI PUSH1 0x0 DUP1 REVERT JUMPDEST PUSH2 0xD74 DUP5 DUP3 DUP6 ADD PUSH2 0xB79 JUMP JUMPDEST SWAP5 SWAP4 POP POP POP POP JUMP JUMPDEST PUSH1 0x0 JUMPDEST DUP4 DUP2 LT ISZERO PUSH2 0xD97 JUMPI DUP2 DUP2 ADD MLOAD DUP4 DUP3 ADD MSTORE PUSH1 0x20 ADD PUSH2 0xD7F JUMP JUMPDEST POP POP PUSH1 0x0 SWAP2 ADD MSTORE JUMP JUMPDEST PUSH1 0x0 DUP2 MLOAD DUP1 DUP5 MSTORE PUSH2 0xDB8 DUP2 PUSH1 0x20 DUP7 ADD PUSH1 0x20 DUP7 ADD PUSH2 0xD7C JUMP JUMPDEST PUSH1 0x1F ADD PUSH1 0x1F NOT AND SWAP3 SWAP1 SWAP3 ADD PUSH1 0x20 ADD SWAP3 SWAP2 POP POP JUMP JUMPDEST PUSH4 0x4E487B71 PUSH1 0xE0 SHL PUSH1 0x0 MSTORE PUSH1 0x21 PUSH1 0x4 MSTORE PUSH1 0x24 PUSH1 0x0 REVERT JUMPDEST PUSH1 0x8 DUP2 LT PUSH2 0xE00 JUMPI PUSH4 0x4E487B71 PUSH1 0xE0 SHL PUSH1 0x0 MSTORE PUSH1 0x21 PUSH1 0x4 MSTORE PUSH1 0x24 PUSH1 0x0 REVERT JUMPDEST SWAP1 MSTORE JUMP JUMPDEST PUSH1 0x20 DUP2 MSTORE PUSH1 0x0 DUP3 MLOAD PUSH1 0xE0 PUSH1 0x20 DUP5 ADD MSTORE PUSH2 0xE21 PUSH2 0x100 DUP5 ADD DUP3 PUSH2 0xDA0 JUMP JUMPDEST SWAP1 POP PUSH1 0x20 DUP5 ADD MLOAD PUSH2 0xE35 PUSH1 0x40 DUP6 ADD DUP3 PUSH2 0xDE2 JUMP JUMPDEST POP PUSH1 0x40 DUP5 ADD MLOAD PUSH1 0x1 PUSH1 0x1 PUSH1 0xA0 SHL SUB AND PUSH1 0x60 DUP5 DUP2 ADD SWAP2 SWAP1 SWAP2 MSTORE DUP5 ADD MLOAD DUP4 DUP3 SUB PUSH1 0x1F NOT SWAP1 DUP2 ADD PUSH1 0x80 DUP7 ADD MSTORE PUSH2 0xE68 DUP4 DUP4 PUSH2 0xDA0 JUMP JUMPDEST SWAP3 POP PUSH1 0x80 DUP7 ADD MLOAD SWAP2 POP DUP1 DUP6 DUP5 SUB ADD PUSH1 0xA0 DUP7 ADD MSTORE POP PUSH2 0xE86 DUP3 DUP3 PUSH2 0xDA0 JUMP JUMPDEST SWAP2 POP POP PUSH1 0xA0 DUP5 ADD MLOAD PUSH1 0xC0 DUP5 ADD MSTORE PUSH1 0xC0 DUP5 ADD MLOAD PUSH1 0xE0 DUP5 ADD MSTORE DUP1 SWAP2 POP POP SWAP3 SWAP2 POP POP JUMP JUMPDEST PUSH1 0x0 PUSH1 0x20 DUP3 DUP5 SUB SLT ISZERO PUSH2 0xEB9 JUMPI PUSH1 0x0 DUP1 REVERT JUMPDEST DUP2 MLOAD DUP1 ISZERO ISZERO DUP2 EQ PUSH2 0xEC9 JUMPI PUSH1 0x0 DUP1 REVERT JUMPDEST SWAP4 SWAP3 POP POP POP JUMP JUMPDEST PUSH1 0x20 DUP1 DUP3 MSTORE PUSH1 0x29 SWAP1 DUP3 ADD MSTORE PUSH32 0x546169206B686F616E2064616E67206269206B686F6120686F6163206B686F6E PUSH1 0x40 DUP3 ADD MSTORE PUSH9 0x6720746F6E20746169 PUSH1 0xB8 SHL PUSH1 0x60 DUP3 ADD MSTORE PUSH1 0x80 ADD SWAP1 JUMP JUMPDEST PUSH1 0x0 DUP3 MLOAD PUSH2 0xF2B DUP2 DUP5 PUSH1 0x20 DUP8 ADD PUSH2 0xD7C JUMP JUMPDEST SWAP2 SWAP1 SWAP2 ADD SWAP3 SWAP2 POP POP JUMP JUMPDEST PUSH1 0x1 DUP2 DUP2 SHR SWAP1 DUP3 AND DUP1 PUSH2 0xF49 JUMPI PUSH1 0x7F DUP3 AND SWAP2 POP JUMPDEST PUSH1 0x20 DUP3 LT DUP2 SUB PUSH2 0xF69 JUMPI PUSH4 0x4E487B71 PUSH1 0xE0 SHL PUSH1 0x0 MSTORE PUSH1 0x22 PUSH1 0x4 MSTORE PUSH1 0x24 PUSH1 0x0 REVERT JUMPDEST POP SWAP2 SWAP1 POP JUMP JUMPDEST PUSH1 0x1F DUP3 GT ISZERO PUSH2 0xFB9 JUMPI PUSH1 0x0 DUP2 DUP2 MSTORE PUSH1 0x20 DUP2 KECCAK256 PUSH1 0x1F DUP6 ADD PUSH1 0x5 SHR DUP2 ADD PUSH1 0x20 DUP7 LT ISZERO PUSH2 0xF96 JUMPI POP DUP1 JUMPDEST PUSH1 0x1F DUP6 ADD PUSH1 0x5 SHR DUP3 ADD SWAP2 POP JUMPDEST DUP2 DUP2 LT ISZERO PUSH2 0xFB5 JUMPI DUP3 DUP2 SSTORE PUSH1 0x1 ADD PUSH2 0xFA2 JUMP JUMPDEST POP POP POP JUMPDEST POP POP POP JUMP JUMPDEST DUP2 MLOAD PUSH8 0xFFFFFFFFFFFFFFFF DUP2 GT ISZERO PUSH2 0xFD8 JUMPI PUSH2 0xFD8 PUSH2 0xB63 JUMP JUMPDEST PUSH2 0xFEC DUP2 PUSH2 0xFE6 DUP5 SLOAD PUSH2 0xF35 JUMP JUMPDEST DUP5 PUSH2 0xF6F JUMP JUMPDEST PUSH1 0x20 DUP1 PUSH1 0x1F DUP4 GT PUSH1 0x1 DUP2 EQ PUSH2 0x1021 JUMPI PUSH1 0x0 DUP5 ISZERO PUSH2 0x1009 JUMPI POP DUP6 DUP4 ADD MLOAD JUMPDEST PUSH1 0x0 NOT PUSH1 0x3 DUP7 SWAP1 SHL SHR NOT AND PUSH1 0x1 DUP6 SWAP1 SHL OR DUP6 SSTORE PUSH2 0xFB5 JUMP JUMPDEST PUSH1 0x0 DUP6 DUP2 MSTORE PUSH1 0x20 DUP2 KECCAK256 PUSH1 0x1F NOT DUP7 AND SWAP2 JUMPDEST DUP3 DUP2 LT ISZERO PUSH2 0x1050 JUMPI DUP9 DUP7 ADD MLOAD DUP3 SSTORE SWAP5 DUP5 ADD SWAP5 PUSH1 0x1 SWAP1 SWAP2 ADD SWAP1 DUP5 ADD PUSH2 0x1031 JUMP JUMPDEST POP DUP6 DUP3 LT ISZERO PUSH2 0x106E JUMPI DUP8 DUP6 ADD MLOAD PUSH1 0x0 NOT PUSH1 0x3 DUP9 SWAP1 SHL PUSH1 0xF8 AND SHR NOT AND DUP2 SSTORE JUMPDEST POP POP POP POP POP PUSH1 0x1 SWAP1 DUP2 SHL ADD SWAP1 SSTORE POP JUMP JUMPDEST PUSH1 0x40 DUP2 MSTORE PUSH1 0x0 PUSH2 0x1091 PUSH1 0x40 DUP4 ADD DUP6 PUSH2 0xDA0 JUMP JUMPDEST DUP3 DUP2 SUB PUSH1 0x20 DUP5 ADD MSTORE PUSH2 0x10A3 DUP2 DUP6 PUSH2 0xDA0 JUMP JUMPDEST SWAP6 SWAP5 POP POP POP POP POP JUMP JUMPDEST PUSH1 0x20 DUP1 DUP3 MSTORE PUSH1 0x25 SWAP1 DUP3 ADD MSTORE PUSH32 0x42616E206B686F6E6720706861692063687520736F20687575206C6F2068616E PUSH1 0x40 DUP3 ADD MSTORE PUSH5 0x67206E6179 PUSH1 0xD8 SHL PUSH1 0x60 DUP3 ADD MSTORE PUSH1 0x80 ADD SWAP1 JUMP JUMPDEST PUSH1 0x40 DUP2 MSTORE PUSH1 0x0 PUSH2 0x1104 PUSH1 0x40 DUP4 ADD DUP6 PUSH2 0xDA0 JUMP JUMPDEST SWAP1 POP PUSH2 0xEC9 PUSH1 0x20 DUP4 ADD DUP5 PUSH2 0xDE2 JUMP JUMPDEST PUSH1 0x20 DUP2 MSTORE PUSH1 0x0 PUSH2 0xEC9 PUSH1 0x20 DUP4 ADD DUP5 PUSH2 0xDA0 JUMP INVALID LOG2 PUSH5 0x6970667358 0x22 SLT KECCAK256 BALANCE 0xFC PUSH0 PUSH14 0xE8753BC0F084CA0E64DC9180418 0xBB CODESIZE 0xCC GT 0xD1 SWAP9 SWAP16 SWAP13 MSIZE ADDMOD 0xC0 0xBA 0x4A DUP9 PUSH5 0x736F6C6343 STOP ADDMOD EQ STOP CALLER "},"methodIdentifiers":{"createBatch(string,string,string,uint256)":"454f9133","getBatch(string)":"f9ca4274","transferBatchOwnership(string,address)":"eee856c2","updateBatchStatus(string,uint8)":"b50a3c87","userRegistryAddress()":"3f39eaa1"}}}}}