{"contracts/UserRegistry.sol":{"UserRegistry":{"abi":[{"inputs":[],"stateMutability":"nonpayable","type":"constructor"},{"anonymous":false,"inputs":[{"indexed":true,"internalType":"address","name":"wallet","type":"address"},{"indexed":true,"internalType":"enum UserRegistry.Role","name":"role","type":"uint8"},{"indexed":false,"internalType":"enum UserRegistry.Status","name":"status","type":"uint8"},{"indexed":false,"internalType":"uint256","name":"createdAt","type":"uint256"}],"name":"UserRegistered","type":"event"},{"anonymous":false,"inputs":[{"indexed":true,"internalType":"address","name":"wallet","type":"address"},{"indexed":false,"internalType":"enum UserRegistry.Role","name":"oldRole","type":"uint8"},{"indexed":false,"internalType":"enum UserRegistry.Role","name":"newRole","type":"uint8"},{"indexed":true,"internalType":"address","name":"updatedBy","type":"address"}],"name":"UserRoleUpdated","type":"event"},{"anonymous":false,"inputs":[{"indexed":true,"internalType":"address","name":"wallet","type":"address"},{"indexed":false,"internalType":"enum UserRegistry.Status","name":"oldStatus","type":"uint8"},{"indexed":false,"internalType":"enum UserRegistry.Status","name":"newStatus","type":"uint8"},{"indexed":true,"internalType":"address","name":"updatedBy","type":"address"}],"name":"UserStatusUpdated","type":"event"},{"inputs":[{"internalType":"address","name":"_wallet","type":"address"}],"name":"getUser","outputs":[{"components":[{"internalType":"address","name":"wallet","type":"address"},{"internalType":"enum UserRegistry.Role","name":"role","type":"uint8"},{"internalType":"enum UserRegistry.Status","name":"status","type":"uint8"},{"internalType":"uint256","name":"createdAt","type":"uint256"}],"internalType":"struct UserRegistry.User","name":"","type":"tuple"}],"stateMutability":"view","type":"function"},{"inputs":[{"internalType":"address","name":"_wallet","type":"address"},{"internalType":"uint8","name":"_role","type":"uint8"}],"name":"hasRole","outputs":[{"internalType":"bool","name":"","type":"bool"}],"stateMutability":"view","type":"function"},{"inputs":[{"internalType":"address","name":"_wallet","type":"address"}],"name":"isActive","outputs":[{"internalType":"bool","name":"","type":"bool"}],"stateMutability":"view","type":"function"},{"inputs":[{"internalType":"address","name":"_wallet","type":"address"},{"internalType":"enum UserRegistry.Role","name":"_role","type":"uint8"}],"name":"registerUser","outputs":[],"stateMutability":"nonpayable","type":"function"},{"inputs":[],"name":"rootAdmin","outputs":[{"internalType":"address","name":"","type":"address"}],"stateMutability":"view","type":"function"},{"inputs":[{"internalType":"address","name":"_wallet","type":"address"},{"internalType":"enum UserRegistry.Role","name":"_newRole","type":"uint8"}],"name":"updateUserRole","outputs":[],"stateMutability":"nonpayable","type":"function"},{"inputs":[{"internalType":"address","name":"_wallet","type":"address"},{"internalType":"enum UserRegistry.Status","name":"_newStatus","type":"uint8"}],"name":"updateUserStatus","outputs":[],"stateMutability":"nonpayable","type":"function"}],"evm":{"bytecode":{"linkReferences":{},"object":"608060405234801561001057600080fd5b5060008054336001600160a01b031991821681178355604080516080810182528281526020808201868152828401879052426060840152938652600190529320835181549384166001600160a01b03909116908117825591519092909183916001600160a81b03191617600160a01b8360068111156100915761009161011a565b021790555060408201518154829060ff60a81b1916600160a81b8360018111156100bd576100bd61011a565b0217905550606091909101516001909101556000336001600160a01b03167f02db13cdfca7c40ba2b7d5a070e8043fc4041665708d15c87bd55ede9bb6b8d860004260405161010d929190610130565b60405180910390a361015c565b634e487b7160e01b600052602160045260246000fd5b604081016002841061015257634e487b7160e01b600052602160045260246000fd5b9281526020015290565b610a348061016b6000396000f3fe608060405234801561001057600080fd5b506004361061007d5760003560e01c806395a8c58d1161005b57806395a8c58d146100e75780639e9fa0971461010a5780639f8a13d71461011d578063c291fe621461013057600080fd5b806358d642e8146100825780636f77926b146100b2578063931f0751146100d2575b600080fd5b600054610095906001600160a01b031681565b6040516001600160a01b0390911681526020015b60405180910390f35b6100c56100c0366004610833565b610143565b6040516100a99190610888565b6100e56100e03660046108ce565b610219565b005b6100fa6100f5366004610909565b610385565b60405190151581526020016100a9565b6100e561011836600461093b565b610406565b6100fa61012b366004610833565b61065e565b6100e561013e36600461093b565b6106c1565b61016f604080516080810190915260008082526020820190815260200160008152602001600081525090565b6001600160a01b0382811660009081526001602090815260409182902082516080810190935280549384168352919290830190600160a01b900460ff1660068111156101bd576101bd61084e565b60068111156101ce576101ce61084e565b81528154602090910190600160a81b900460ff1660018111156101f3576101f361084e565b60018111156102045761020461084e565b81526020016001820154815250509050919050565b600033600090815260016020526040902054600160a01b900460ff1660068111156102465761024661084e565b148061025c57506000546001600160a01b031633145b6102815760405162461bcd60e51b81526004016102789061096b565b60405180910390fd5b6001600160a01b03828116600090815260016020526040902054166102e85760405162461bcd60e51b815260206004820152601e60248201527f526f62757374726163653a2055736572206b686f6e6720746f6e2074616900006044820152606401610278565b6001600160a01b03821660009081526001602081905260409091208054600160a81b80820460ff169385939260ff60a81b19169190849081111561032e5761032e61084e565b0217905550336001600160a01b0316836001600160a01b03167fb6c5b83575457cb22483c10c8c541ed18341abdb3060bef0dce6c5be814d149483856040516103789291906109ad565b60405180910390a3505050565b6001600160a01b03821660009081526001602052604081205460ff80841691600160a01b90041660068111156103bd576103bd61084e565b60ff161480156103ff57506001600160a01b0383166000908152600160208190526040822054600160a81b900460ff16908111156103fd576103fd61084e565b145b9392505050565b600033600090815260016020526040902054600160a01b900460ff1660068111156104335761043361084e565b148061044957506000546001600160a01b031633145b6104655760405162461bcd60e51b81526004016102789061096b565b6001600160a01b0382166104c75760405162461bcd60e51b815260206004820152602360248201527f526f62757374726163653a2044696120636869207669206b686f6e6720686f70604482015262206c6560e81b6064820152608401610278565b6001600160a01b03828116600090815260016020526040902054161561052f5760405162461bcd60e51b815260206004820181905260248201527f526f62757374726163653a20546169206b686f616e20646120746f6e207461696044820152606401610278565b6040518060800160405280836001600160a01b0316815260200182600681111561055b5761055b61084e565b815260200160008152426020918201526001600160a01b03808516600090815260018352604090208351815492166001600160a01b0319831681178255928401519092909183916001600160a81b031990911617600160a01b8360068111156105c6576105c661084e565b021790555060408201518154829060ff60a81b1916600160a81b8360018111156105f2576105f261084e565b0217905550606082015181600101559050508060068111156106165761061661084e565b826001600160a01b03167f02db13cdfca7c40ba2b7d5a070e8043fc4041665708d15c87bd55ede9bb6b8d86000426040516106529291906109c8565b60405180910390a35050565b6001600160a01b03818116600090815260016020526040812054909116158015906106bb57506001600160a01b0382166000908152600160208190526040822054600160a81b900460ff16908111156106b9576106b961084e565b145b92915050565b600033600090815260016020526040902054600160a01b900460ff1660068111156106ee576106ee61084e565b148061070457506000546001600160a01b031633145b6107205760405162461bcd60e51b81526004016102789061096b565b6001600160a01b03828116600090815260016020526040902054166107875760405162461bcd60e51b815260206004820152601e60248201527f526f62757374726163653a2055736572206b686f6e6720746f6e2074616900006044820152606401610278565b6001600160a01b03821660009081526001602052604090208054600160a01b80820460ff16928492909160ff60a01b19909116908360068111156107cd576107cd61084e565b0217905550336001600160a01b0316836001600160a01b03167f9aebd01cdf037f450af9b51570e16317b26feaf5fb81a8229143ec20b000e7af83856040516103789291906109e3565b80356001600160a01b038116811461082e57600080fd5b919050565b60006020828403121561084557600080fd5b6103ff82610817565b634e487b7160e01b600052602160045260246000fd5b600781106108745761087461084e565b9052565b600281106108745761087461084e565b81516001600160a01b0316815260208083015160808301916108ac90840182610864565b5060408301516108bf6040840182610878565b50606092830151919092015290565b600080604083850312156108e157600080fd5b6108ea83610817565b91506020830135600281106108fe57600080fd5b809150509250929050565b6000806040838503121561091c57600080fd5b61092583610817565b9150602083013560ff811681146108fe57600080fd5b6000806040838503121561094e57600080fd5b61095783610817565b91506020830135600781106108fe57600080fd5b60208082526022908201527f526f62757374726163653a204368692041444d494e206d6f6920636f2071757960408201526132b760f11b606082015260800190565b604081016109bb8285610878565b6103ff6020830184610878565b604081016109d68285610878565b8260208301529392505050565b604081016109f18285610864565b6103ff602083018461086456fea2646970667358221220137b25cd87b51b7c80405359ae1e09f7dc81b537a11c346b4269c2856a772db764736f6c63430008140033","opcodes":"PUSH1 0x80 PUSH1 0x40 MSTORE CALLVALUE DUP1 ISZERO PUSH2 0x10 JUMPI PUSH1 0x0 DUP1 REVERT JUMPDEST POP PUSH1 0x0 DUP1 SLOAD CALLER PUSH1 0x1 PUSH1 0x1 PUSH1 0xA0 SHL SUB NOT SWAP2 DUP3 AND DUP2 OR DUP4 SSTORE PUSH1 0x40 DUP1 MLOAD PUSH1 0x80 DUP2 ADD DUP3 MSTORE DUP3 DUP2 MSTORE PUSH1 0x20 DUP1 DUP3 ADD DUP7 DUP2 MSTORE DUP3 DUP5 ADD DUP8 SWAP1 MSTORE TIMESTAMP PUSH1 0x60 DUP5 ADD MSTORE SWAP4 DUP7 MSTORE PUSH1 0x1 SWAP1 MSTORE SWAP4 KECCAK256 DUP4 MLOAD DUP2 SLOAD SWAP4 DUP5 AND PUSH1 0x1 PUSH1 0x1 PUSH1 0xA0 SHL SUB SWAP1 SWAP2 AND SWAP1 DUP2 OR DUP3 SSTORE SWAP2 MLOAD SWAP1 SWAP3 SWAP1 SWAP2 DUP4 SWAP2 PUSH1 0x1 PUSH1 0x1 PUSH1 0xA8 SHL SUB NOT AND OR PUSH1 0x1 PUSH1 0xA0 SHL DUP4 PUSH1 0x6 DUP2 GT ISZERO PUSH2 0x91 JUMPI PUSH2 0x91 PUSH2 0x11A JUMP JUMPDEST MUL OR SWAP1 SSTORE POP PUSH1 0x40 DUP3 ADD MLOAD DUP2 SLOAD DUP3 SWAP1 PUSH1 0xFF PUSH1 0xA8 SHL NOT AND PUSH1 0x1 PUSH1 0xA8 SHL DUP4 PUSH1 0x1 DUP2 GT ISZERO PUSH2 0xBD JUMPI PUSH2 0xBD PUSH2 0x11A JUMP JUMPDEST MUL OR SWAP1 SSTORE POP PUSH1 0x60 SWAP2 SWAP1 SWAP2 ADD MLOAD PUSH1 0x1 SWAP1 SWAP2 ADD SSTORE PUSH1 0x0 CALLER PUSH1 0x1 PUSH1 0x1 PUSH1 0xA0 SHL SUB AND PUSH32 0x2DB13CDFCA7C40BA2B7D5A070E8043FC4041665708D15C87BD55EDE9BB6B8D8 PUSH1 0x0 TIMESTAMP PUSH1 0x40 MLOAD PUSH2 0x10D SWAP3 SWAP2 SWAP1 PUSH2 0x130 JUMP JUMPDEST PUSH1 0x40 MLOAD DUP1 SWAP2 SUB SWAP1 LOG3 PUSH2 0x15C JUMP JUMPDEST PUSH4 0x4E487B71 PUSH1 0xE0 SHL PUSH1 0x0 MSTORE PUSH1 0x21 PUSH1 0x4 MSTORE PUSH1 0x24 PUSH1 0x0 REVERT JUMPDEST PUSH1 0x40 DUP2 ADD PUSH1 0x2 DUP5 LT PUSH2 0x152 JUMPI PUSH4 0x4E487B71 PUSH1 0xE0 SHL PUSH1 0x0 MSTORE PUSH1 0x21 PUSH1 0x4 MSTORE PUSH1 0x24 PUSH1 0x0 REVERT JUMPDEST SWAP3 DUP2 MSTORE PUSH1 0x20 ADD MSTORE SWAP1 JUMP JUMPDEST PUSH2 0xA34 DUP1 PUSH2 0x16B PUSH1 0x0 CODECOPY PUSH1 0x0 RETURN INVALID PUSH1 0x80 PUSH1 0x40 MSTORE CALLVALUE DUP1 ISZERO PUSH2 0x10 JUMPI PUSH1 0x0 DUP1 REVERT JUMPDEST POP PUSH1 0x4 CALLDATASIZE LT PUSH2 0x7D JUMPI PUSH1 0x0 CALLDATALOAD PUSH1 0xE0 SHR DUP1 PUSH4 0x95A8C58D GT PUSH2 0x5B JUMPI DUP1 PUSH4 0x95A8C58D EQ PUSH2 0xE7 JUMPI DUP1 PUSH4 0x9E9FA097 EQ PUSH2 0x10A JUMPI DUP1 PUSH4 0x9F8A13D7 EQ PUSH2 0x11D JUMPI DUP1 PUSH4 0xC291FE62 EQ PUSH2 0x130 JUMPI PUSH1 0x0 DUP1 REVERT JUMPDEST DUP1 PUSH4 0x58D642E8 EQ PUSH2 0x82 JUMPI DUP1 PUSH4 0x6F77926B EQ PUSH2 0xB2 JUMPI DUP1 PUSH4 0x931F0751 EQ PUSH2 0xD2 JUMPI JUMPDEST PUSH1 0x0 DUP1 REVERT JUMPDEST PUSH1 0x0 SLOAD PUSH2 0x95 SWAP1 PUSH1 0x1 PUSH1 0x1 PUSH1 0xA0 SHL SUB AND DUP2 JUMP JUMPDEST PUSH1 0x40 MLOAD PUSH1 0x1 PUSH1 0x1 PUSH1 0xA0 SHL SUB SWAP1 SWAP2 AND DUP2 MSTORE PUSH1 0x20 ADD JUMPDEST PUSH1 0x40 MLOAD DUP1 SWAP2 SUB SWAP1 RETURN JUMPDEST PUSH2 0xC5 PUSH2 0xC0 CALLDATASIZE PUSH1 0x4 PUSH2 0x833 JUMP JUMPDEST PUSH2 0x143 JUMP JUMPDEST PUSH1 0x40 MLOAD PUSH2 0xA9 SWAP2 SWAP1 PUSH2 0x888 JUMP JUMPDEST PUSH2 0xE5 PUSH2 0xE0 CALLDATASIZE PUSH1 0x4 PUSH2 0x8CE JUMP JUMPDEST PUSH2 0x219 JUMP JUMPDEST STOP JUMPDEST PUSH2 0xFA PUSH2 0xF5 CALLDATASIZE PUSH1 0x4 PUSH2 0x909 JUMP JUMPDEST PUSH2 0x385 JUMP JUMPDEST PUSH1 0x40 MLOAD SWAP1 ISZERO ISZERO DUP2 MSTORE PUSH1 0x20 ADD PUSH2 0xA9 JUMP JUMPDEST PUSH2 0xE5 PUSH2 0x118 CALLDATASIZE PUSH1 0x4 PUSH2 0x93B JUMP JUMPDEST PUSH2 0x406 JUMP JUMPDEST PUSH2 0xFA PUSH2 0x12B CALLDATASIZE PUSH1 0x4 PUSH2 0x833 JUMP JUMPDEST PUSH2 0x65E JUMP JUMPDEST PUSH2 0xE5 PUSH2 0x13E CALLDATASIZE PUSH1 0x4 PUSH2 0x93B JUMP JUMPDEST PUSH2 0x6C1 JUMP JUMPDEST PUSH2 0x16F PUSH1 0x40 DUP1 MLOAD PUSH1 0x80 DUP2 ADD SWAP1 SWAP2 MSTORE PUSH1 0x0 DUP1 DUP3 MSTORE PUSH1 0x20 DUP3 ADD SWAP1 DUP2 MSTORE PUSH1 0x20 ADD PUSH1 0x0 DUP2 MSTORE PUSH1 0x20 ADD PUSH1 0x0 DUP2 MSTORE POP SWAP1 JUMP JUMPDEST PUSH1 0x1 PUSH1 0x1 PUSH1 0xA0 SHL SUB DUP3 DUP2 AND PUSH1 0x0 SWAP1 DUP2 MSTORE PUSH1 0x1 PUSH1 0x20 SWAP1 DUP2 MSTORE PUSH1 0x40 SWAP2 DUP3 SWAP1 KECCAK256 DUP3 MLOAD PUSH1 0x80 DUP2 ADD SWAP1 SWAP4 MSTORE DUP1 SLOAD SWAP4 DUP5 AND DUP4 MSTORE SWAP2 SWAP3 SWAP1 DUP4 ADD SWAP1 PUSH1 0x1 PUSH1 0xA0 SHL SWAP1 DIV PUSH1 0xFF AND PUSH1 0x6 DUP2 GT ISZERO PUSH2 0x1BD JUMPI PUSH2 0x1BD PUSH2 0x84E JUMP JUMPDEST PUSH1 0x6 DUP2 GT ISZERO PUSH2 0x1CE JUMPI PUSH2 0x1CE PUSH2 0x84E JUMP JUMPDEST DUP2 MSTORE DUP2 SLOAD PUSH1 0x20 SWAP1 SWAP2 ADD SWAP1 PUSH1 0x1 PUSH1 0xA8 SHL SWAP1 DIV PUSH1 0xFF AND PUSH1 0x1 DUP2 GT ISZERO PUSH2 0x1F3 JUMPI PUSH2 0x1F3 PUSH2 0x84E JUMP JUMPDEST PUSH1 0x1 DUP2 GT ISZERO PUSH2 0x204 JUMPI PUSH2 0x204 PUSH2 0x84E JUMP JUMPDEST DUP2 MSTORE PUSH1 0x20 ADD PUSH1 0x1 DUP3 ADD SLOAD DUP2 MSTORE POP POP SWAP1 POP SWAP2 SWAP1 POP JUMP JUMPDEST PUSH1 0x0 CALLER PUSH1 0x0 SWAP1 DUP2 MSTORE PUSH1 0x1 PUSH1 0x20 MSTORE PUSH1 0x40 SWAP1 KECCAK256 SLOAD PUSH1 0x1 PUSH1 0xA0 SHL SWAP1 DIV PUSH1 0xFF AND PUSH1 0x6 DUP2 GT ISZERO PUSH2 0x246 JUMPI PUSH2 0x246 PUSH2 0x84E JUMP JUMPDEST EQ DUP1 PUSH2 0x25C JUMPI POP PUSH1 0x0 SLOAD PUSH1 0x1 PUSH1 0x1 PUSH1 0xA0 SHL SUB AND CALLER EQ JUMPDEST PUSH2 0x281 JUMPI PUSH1 0x40 MLOAD PUSH3 0x461BCD PUSH1 0xE5 SHL DUP2 MSTORE PUSH1 0x4 ADD PUSH2 0x278 SWAP1 PUSH2 0x96B JUMP JUMPDEST PUSH1 0x40 MLOAD DUP1 SWAP2 SUB SWAP1 REVERT JUMPDEST PUSH1 0x1 PUSH1 0x1 PUSH1 0xA0 SHL SUB DUP3 DUP2 AND PUSH1 0x0 SWAP1 DUP2 MSTORE PUSH1 0x1 PUSH1 0x20 MSTORE PUSH1 0x40 SWAP1 KECCAK256 SLOAD AND PUSH2 0x2E8 JUMPI PUSH1 0x40 MLOAD PUSH3 0x461BCD PUSH1 0xE5 SHL DUP2 MSTORE PUSH1 0x20 PUSH1 0x4 DUP3 ADD MSTORE PUSH1 0x1E PUSH1 0x24 DUP3 ADD MSTORE PUSH32 0x526F62757374726163653A2055736572206B686F6E6720746F6E207461690000 PUSH1 0x44 DUP3 ADD MSTORE PUSH1 0x64 ADD PUSH2 0x278 JUMP JUMPDEST PUSH1 0x1 PUSH1 0x1 PUSH1 0xA0 SHL SUB DUP3 AND PUSH1 0x0 SWAP1 DUP2 MSTORE PUSH1 0x1 PUSH1 0x20 DUP2 SWAP1 MSTORE PUSH1 0x40 SWAP1 SWAP2 KECCAK256 DUP1 SLOAD PUSH1 0x1 PUSH1 0xA8 SHL DUP1 DUP3 DIV PUSH1 0xFF AND SWAP4 DUP6 SWAP4 SWAP3 PUSH1 0xFF PUSH1 0xA8 SHL NOT AND SWAP2 SWAP1 DUP5 SWAP1 DUP2 GT ISZERO PUSH2 0x32E JUMPI PUSH2 0x32E PUSH2 0x84E JUMP JUMPDEST MUL OR SWAP1 SSTORE POP CALLER PUSH1 0x1 PUSH1 0x1 PUSH1 0xA0 SHL SUB AND DUP4 PUSH1 0x1 PUSH1 0x1 PUSH1 0xA0 SHL SUB AND PUSH32 0xB6C5B83575457CB22483C10C8C541ED18341ABDB3060BEF0DCE6C5BE814D1494 DUP4 DUP6 PUSH1 0x40 MLOAD PUSH2 0x378 SWAP3 SWAP2 SWAP1 PUSH2 0x9AD JUMP JUMPDEST PUSH1 0x40 MLOAD DUP1 SWAP2 SUB SWAP1 LOG3 POP POP POP JUMP JUMPDEST PUSH1 0x1 PUSH1 0x1 PUSH1 0xA0 SHL SUB DUP3 AND PUSH1 0x0 SWAP1 DUP2 MSTORE PUSH1 0x1 PUSH1 0x20 MSTORE PUSH1 0x40 DUP2 KECCAK256 SLOAD PUSH1 0xFF DUP1 DUP5 AND SWAP2 PUSH1 0x1 PUSH1 0xA0 SHL SWAP1 DIV AND PUSH1 0x6 DUP2 GT ISZERO PUSH2 0x3BD JUMPI PUSH2 0x3BD PUSH2 0x84E JUMP JUMPDEST PUSH1 0xFF AND EQ DUP1 ISZERO PUSH2 0x3FF JUMPI POP PUSH1 0x1 PUSH1 0x1 PUSH1 0xA0 SHL SUB DUP4 AND PUSH1 0x0 SWAP1 DUP2 MSTORE PUSH1 0x1 PUSH1 0x20 DUP2 SWAP1 MSTORE PUSH1 0x40 DUP3 KECCAK256 SLOAD PUSH1 0x1 PUSH1 0xA8 SHL SWAP1 DIV PUSH1 0xFF AND SWAP1 DUP2 GT ISZERO PUSH2 0x3FD JUMPI PUSH2 0x3FD PUSH2 0x84E JUMP JUMPDEST EQ JUMPDEST SWAP4 SWAP3 POP POP POP JUMP JUMPDEST PUSH1 0x0 CALLER PUSH1 0x0 SWAP1 DUP2 MSTORE PUSH1 0x1 PUSH1 0x20 MSTORE PUSH1 0x40 SWAP1 KECCAK256 SLOAD PUSH1 0x1 PUSH1 0xA0 SHL SWAP1 DIV PUSH1 0xFF AND PUSH1 0x6 DUP2 GT ISZERO PUSH2 0x433 JUMPI PUSH2 0x433 PUSH2 0x84E JUMP JUMPDEST EQ DUP1 PUSH2 0x449 JUMPI POP PUSH1 0x0 SLOAD PUSH1 0x1 PUSH1 0x1 PUSH1 0xA0 SHL SUB AND CALLER EQ JUMPDEST PUSH2 0x465 JUMPI PUSH1 0x40 MLOAD PUSH3 0x461BCD PUSH1 0xE5 SHL DUP2 MSTORE PUSH1 0x4 ADD PUSH2 0x278 SWAP1 PUSH2 0x96B JUMP JUMPDEST PUSH1 0x1 PUSH1 0x1 PUSH1 0xA0 SHL SUB DUP3 AND PUSH2 0x4C7 JUMPI PUSH1 0x40 MLOAD PUSH3 0x461BCD PUSH1 0xE5 SHL DUP2 MSTORE PUSH1 0x20 PUSH1 0x4 DUP3 ADD MSTORE PUSH1 0x23 PUSH1 0x24 DUP3 ADD MSTORE PUSH32 0x526F62757374726163653A2044696120636869207669206B686F6E6720686F70 PUSH1 0x44 DUP3 ADD MSTORE PUSH3 0x206C65 PUSH1 0xE8 SHL PUSH1 0x64 DUP3 ADD MSTORE PUSH1 0x84 ADD PUSH2 0x278 JUMP JUMPDEST PUSH1 0x1 PUSH1 0x1 PUSH1 0xA0 SHL SUB DUP3 DUP2 AND PUSH1 0x0 SWAP1 DUP2 MSTORE PUSH1 0x1 PUSH1 0x20 MSTORE PUSH1 0x40 SWAP1 KECCAK256 SLOAD AND ISZERO PUSH2 0x52F JUMPI PUSH1 0x40 MLOAD PUSH3 0x461BCD PUSH1 0xE5 SHL DUP2 MSTORE PUSH1 0x20 PUSH1 0x4 DUP3 ADD DUP2 SWAP1 MSTORE PUSH1 0x24 DUP3 ADD MSTORE PUSH32 0x526F62757374726163653A20546169206B686F616E20646120746F6E20746169 PUSH1 0x44 DUP3 ADD MSTORE PUSH1 0x64 ADD PUSH2 0x278 JUMP JUMPDEST PUSH1 0x40 MLOAD DUP1 PUSH1 0x80 ADD PUSH1 0x40 MSTORE DUP1 DUP4 PUSH1 0x1 PUSH1 0x1 PUSH1 0xA0 SHL SUB AND DUP2 MSTORE PUSH1 0x20 ADD DUP3 PUSH1 0x6 DUP2 GT ISZERO PUSH2 0x55B JUMPI PUSH2 0x55B PUSH2 0x84E JUMP JUMPDEST DUP2 MSTORE PUSH1 0x20 ADD PUSH1 0x0 DUP2 MSTORE TIMESTAMP PUSH1 0x20 SWAP2 DUP3 ADD MSTORE PUSH1 0x1 PUSH1 0x1 PUSH1 0xA0 SHL SUB DUP1 DUP6 AND PUSH1 0x0 SWAP1 DUP2 MSTORE PUSH1 0x1 DUP4 MSTORE PUSH1 0x40 SWAP1 KECCAK256 DUP4 MLOAD DUP2 SLOAD SWAP3 AND PUSH1 0x1 PUSH1 0x1 PUSH1 0xA0 SHL SUB NOT DUP4 AND DUP2 OR DUP3 SSTORE SWAP3 DUP5 ADD MLOAD SWAP1 SWAP3 SWAP1 SWAP2 DUP4 SWAP2 PUSH1 0x1 PUSH1 0x1 PUSH1 0xA8 SHL SUB NOT SWAP1 SWAP2 AND OR PUSH1 0x1 PUSH1 0xA0 SHL DUP4 PUSH1 0x6 DUP2 GT ISZERO PUSH2 0x5C6 JUMPI PUSH2 0x5C6 PUSH2 0x84E JUMP JUMPDEST MUL OR SWAP1 SSTORE POP PUSH1 0x40 DUP3 ADD MLOAD DUP2 SLOAD DUP3 SWAP1 PUSH1 0xFF PUSH1 0xA8 SHL NOT AND PUSH1 0x1 PUSH1 0xA8 SHL DUP4 PUSH1 0x1 DUP2 GT ISZERO PUSH2 0x5F2 JUMPI PUSH2 0x5F2 PUSH2 0x84E JUMP JUMPDEST MUL OR SWAP1 SSTORE POP PUSH1 0x60 DUP3 ADD MLOAD DUP2 PUSH1 0x1 ADD SSTORE SWAP1 POP POP DUP1 PUSH1 0x6 DUP2 GT ISZERO PUSH2 0x616 JUMPI PUSH2 0x616 PUSH2 0x84E JUMP JUMPDEST DUP3 PUSH1 0x1 PUSH1 0x1 PUSH1 0xA0 SHL SUB AND PUSH32 0x2DB13CDFCA7C40BA2B7D5A070E8043FC4041665708D15C87BD55EDE9BB6B8D8 PUSH1 0x0 TIMESTAMP PUSH1 0x40 MLOAD PUSH2 0x652 SWAP3 SWAP2 SWAP1 PUSH2 0x9C8 JUMP JUMPDEST PUSH1 0x40 MLOAD DUP1 SWAP2 SUB SWAP1 LOG3 POP POP JUMP JUMPDEST PUSH1 0x1 PUSH1 0x1 PUSH1 0xA0 SHL SUB DUP2 DUP2 AND PUSH1 0x0 SWAP1 DUP2 MSTORE PUSH1 0x1 PUSH1 0x20 MSTORE PUSH1 0x40 DUP2 KECCAK256 SLOAD SWAP1 SWAP2 AND ISZERO DUP1 ISZERO SWAP1 PUSH2 0x6BB JUMPI POP PUSH1 0x1 PUSH1 0x1 PUSH1 0xA0 SHL SUB DUP3 AND PUSH1 0x0 SWAP1 DUP2 MSTORE PUSH1 0x1 PUSH1 0x20 DUP2 SWAP1 MSTORE PUSH1 0x40 DUP3 KECCAK256 SLOAD PUSH1 0x1 PUSH1 0xA8 SHL SWAP1 DIV PUSH1 0xFF AND SWAP1 DUP2 GT ISZERO PUSH2 0x6B9 JUMPI PUSH2 0x6B9 PUSH2 0x84E JUMP JUMPDEST EQ JUMPDEST SWAP3 SWAP2 POP POP JUMP JUMPDEST PUSH1 0x0 CALLER PUSH1 0x0 SWAP1 DUP2 MSTORE PUSH1 0x1 PUSH1 0x20 MSTORE PUSH1 0x40 SWAP1 KECCAK256 SLOAD PUSH1 0x1 PUSH1 0xA0 SHL SWAP1 DIV PUSH1 0xFF AND PUSH1 0x6 DUP2 GT ISZERO PUSH2 0x6EE JUMPI PUSH2 0x6EE PUSH2 0x84E JUMP JUMPDEST EQ DUP1 PUSH2 0x704 JUMPI POP PUSH1 0x0 SLOAD PUSH1 0x1 PUSH1 0x1 PUSH1 0xA0 SHL SUB AND CALLER EQ JUMPDEST PUSH2 0x720 JUMPI PUSH1 0x40 MLOAD PUSH3 0x461BCD PUSH1 0xE5 SHL DUP2 MSTORE PUSH1 0x4 ADD PUSH2 0x278 SWAP1 PUSH2 0x96B JUMP JUMPDEST PUSH1 0x1 PUSH1 0x1 PUSH1 0xA0 SHL SUB DUP3 DUP2 AND PUSH1 0x0 SWAP1 DUP2 MSTORE PUSH1 0x1 PUSH1 0x20 MSTORE PUSH1 0x40 SWAP1 KECCAK256 SLOAD AND PUSH2 0x787 JUMPI PUSH1 0x40 MLOAD PUSH3 0x461BCD PUSH1 0xE5 SHL DUP2 MSTORE PUSH1 0x20 PUSH1 0x4 DUP3 ADD MSTORE PUSH1 0x1E PUSH1 0x24 DUP3 ADD MSTORE PUSH32 0x526F62757374726163653A2055736572206B686F6E6720746F6E207461690000 PUSH1 0x44 DUP3 ADD MSTORE PUSH1 0x64 ADD PUSH2 0x278 JUMP JUMPDEST PUSH1 0x1 PUSH1 0x1 PUSH1 0xA0 SHL SUB DUP3 AND PUSH1 0x0 SWAP1 DUP2 MSTORE PUSH1 0x1 PUSH1 0x20 MSTORE PUSH1 0x40 SWAP1 KECCAK256 DUP1 SLOAD PUSH1 0x1 PUSH1 0xA0 SHL DUP1 DUP3 DIV PUSH1 0xFF AND SWAP3 DUP5 SWAP3 SWAP1 SWAP2 PUSH1 0xFF PUSH1 0xA0 SHL NOT SWAP1 SWAP2 AND SWAP1 DUP4 PUSH1 0x6 DUP2 GT ISZERO PUSH2 0x7CD JUMPI PUSH2 0x7CD PUSH2 0x84E JUMP JUMPDEST MUL OR SWAP1 SSTORE POP CALLER PUSH1 0x1 PUSH1 0x1 PUSH1 0xA0 SHL SUB AND DUP4 PUSH1 0x1 PUSH1 0x1 PUSH1 0xA0 SHL SUB AND PUSH32 0x9AEBD01CDF037F450AF9B51570E16317B26FEAF5FB81A8229143EC20B000E7AF DUP4 DUP6 PUSH1 0x40 MLOAD PUSH2 0x378 SWAP3 SWAP2 SWAP1 PUSH2 0x9E3 JUMP JUMPDEST DUP1 CALLDATALOAD PUSH1 0x1 PUSH1 0x1 PUSH1 0xA0 SHL SUB DUP2 AND DUP2 EQ PUSH2 0x82E JUMPI PUSH1 0x0 DUP1 REVERT JUMPDEST SWAP2 SWAP1 POP JUMP JUMPDEST PUSH1 0x0 PUSH1 0x20 DUP3 DUP5 SUB SLT ISZERO PUSH2 0x845 JUMPI PUSH1 0x0 DUP1 REVERT JUMPDEST PUSH2 0x3FF DUP3 PUSH2 0x817 JUMP JUMPDEST PUSH4 0x4E487B71 PUSH1 0xE0 SHL PUSH1 0x0 MSTORE PUSH1 0x21 PUSH1 0x4 MSTORE PUSH1 0x24 PUSH1 0x0 REVERT JUMPDEST PUSH1 0x7 DUP2 LT PUSH2 0x874 JUMPI PUSH2 0x874 PUSH2 0x84E JUMP JUMPDEST SWAP1 MSTORE JUMP JUMPDEST PUSH1 0x2 DUP2 LT PUSH2 0x874 JUMPI PUSH2 0x874 PUSH2 0x84E JUMP JUMPDEST DUP2 MLOAD PUSH1 0x1 PUSH1 0x1 PUSH1 0xA0 SHL SUB AND DUP2 MSTORE PUSH1 0x20 DUP1 DUP4 ADD MLOAD PUSH1 0x80 DUP4 ADD SWAP2 PUSH2 0x8AC SWAP1 DUP5 ADD DUP3 PUSH2 0x864 JUMP JUMPDEST POP PUSH1 0x40 DUP4 ADD MLOAD PUSH2 0x8BF PUSH1 0x40 DUP5 ADD DUP3 PUSH2 0x878 JUMP JUMPDEST POP PUSH1 0x60 SWAP3 DUP4 ADD MLOAD SWAP2 SWAP1 SWAP3 ADD MSTORE SWAP1 JUMP JUMPDEST PUSH1 0x0 DUP1 PUSH1 0x40 DUP4 DUP6 SUB SLT ISZERO PUSH2 0x8E1 JUMPI PUSH1 0x0 DUP1 REVERT JUMPDEST PUSH2 0x8EA DUP4 PUSH2 0x817 JUMP JUMPDEST SWAP2 POP PUSH1 0x20 DUP4 ADD CALLDATALOAD PUSH1 0x2 DUP2 LT PUSH2 0x8FE JUMPI PUSH1 0x0 DUP1 REVERT JUMPDEST DUP1 SWAP2 POP POP SWAP3 POP SWAP3 SWAP1 POP JUMP JUMPDEST PUSH1 0x0 DUP1 PUSH1 0x40 DUP4 DUP6 SUB SLT ISZERO PUSH2 0x91C JUMPI PUSH1 0x0 DUP1 REVERT JUMPDEST PUSH2 0x925 DUP4 PUSH2 0x817 JUMP JUMPDEST SWAP2 POP PUSH1 0x20 DUP4 ADD CALLDATALOAD PUSH1 0xFF DUP2 AND DUP2 EQ PUSH2 0x8FE JUMPI PUSH1 0x0 DUP1 REVERT JUMPDEST PUSH1 0x0 DUP1 PUSH1 0x40 DUP4 DUP6 SUB SLT ISZERO PUSH2 0x94E JUMPI PUSH1 0x0 DUP1 REVERT JUMPDEST PUSH2 0x957 DUP4 PUSH2 0x817 JUMP JUMPDEST SWAP2 POP PUSH1 0x20 DUP4 ADD CALLDATALOAD PUSH1 0x7 DUP2 LT PUSH2 0x8FE JUMPI PUSH1 0x0 DUP1 REVERT JUMPDEST PUSH1 0x20 DUP1 DUP3 MSTORE PUSH1 0x22 SWAP1 DUP3 ADD MSTORE PUSH32 0x526F62757374726163653A204368692041444D494E206D6F6920636F20717579 PUSH1 0x40 DUP3 ADD MSTORE PUSH2 0x32B7 PUSH1 0xF1 SHL PUSH1 0x60 DUP3 ADD MSTORE PUSH1 0x80 ADD SWAP1 JUMP JUMPDEST PUSH1 0x40 DUP2 ADD PUSH2 0x9BB DUP3 DUP6 PUSH2 0x878 JUMP JUMPDEST PUSH2 0x3FF PUSH1 0x20 DUP4 ADD DUP5 PUSH2 0x878 JUMP JUMPDEST PUSH1 0x40 DUP2 ADD PUSH2 0x9D6 DUP3 DUP6 PUSH2 0x878 JUMP JUMPDEST DUP3 PUSH1 0x20 DUP4 ADD MSTORE SWAP4 SWAP3 POP POP POP JUMP JUMPDEST PUSH1 0x40 DUP2 ADD PUSH2 0x9F1 DUP3 DUP6 PUSH2 0x864 JUMP JUMPDEST PUSH2 0x3FF PUSH1 0x20 DUP4 ADD DUP5 PUSH2 0x864 JUMP INVALID LOG2 PUSH5 0x6970667358 0x22 SLT KECCAK256 SGT PUSH28 0x25CD87B51B7C80405359AE1E09F7DC81B537A11C346B4269C2856A77 0x2D 0xB7 PUSH5 0x736F6C6343 STOP ADDMOD EQ STOP CALLER "},"methodIdentifiers":{"getUser(address)":"6f77926b","hasRole(address,uint8)":"95a8c58d","isActive(address)":"9f8a13d7","registerUser(address,uint8)":"9e9fa097","rootAdmin()":"58d642e8","updateUserRole(address,uint8)":"c291fe62","updateUserStatus(address,uint8)":"931f0751"}}}}}