{
  "_format": "hh-sol-artifact-1",
  "contractName": "UserRegistry",
  "sourceName": "contracts/UserRegistry.sol",
  "abi": [
    {
      "inputs": [],
      "stateMutability": "nonpayable",
      "type": "constructor"
    },
    {
      "anonymous": false,
      "inputs": [
        {
          "indexed": true,
          "internalType": "address",
          "name": "wallet",
          "type": "address"
        },
        {
          "indexed": true,
          "internalType": "enum UserRegistry.Role",
          "name": "role",
          "type": "uint8"
        },
        {
          "indexed": false,
          "internalType": "enum UserRegistry.Status",
          "name": "status",
          "type": "uint8"
        },
        {
          "indexed": false,
          "internalType": "uint256",
          "name": "createdAt",
          "type": "uint256"
        }
      ],
      "name": "UserRegistered",
      "type": "event"
    },
    {
      "anonymous": false,
      "inputs": [
        {
          "indexed": true,
          "internalType": "address",
          "name": "wallet",
          "type": "address"
        },
        {
          "indexed": false,
          "internalType": "enum UserRegistry.Role",
          "name": "oldRole",
          "type": "uint8"
        },
        {
          "indexed": false,
          "internalType": "enum UserRegistry.Role",
          "name": "newRole",
          "type": "uint8"
        },
        {
          "indexed": true,
          "internalType": "address",
          "name": "updatedBy",
          "type": "address"
        }
      ],
      "name": "UserRoleUpdated",
      "type": "event"
    },
    {
      "anonymous": false,
      "inputs": [
        {
          "indexed": true,
          "internalType": "address",
          "name": "wallet",
          "type": "address"
        },
        {
          "indexed": false,
          "internalType": "enum UserRegistry.Status",
          "name": "oldStatus",
          "type": "uint8"
        },
        {
          "indexed": false,
          "internalType": "enum UserRegistry.Status",
          "name": "newStatus",
          "type": "uint8"
        },
        {
          "indexed": true,
          "internalType": "address",
          "name": "updatedBy",
          "type": "address"
        }
      ],
      "name": "UserStatusUpdated",
      "type": "event"
    },
    {
      "inputs": [
        {
          "internalType": "address",
          "name": "_wallet",
          "type": "address"
        }
      ],
      "name": "getUser",
      "outputs": [
        {
          "components": [
            {
              "internalType": "address",
              "name": "wallet",
              "type": "address"
            },
            {
              "internalType": "enum UserRegistry.Role",
              "name": "role",
              "type": "uint8"
            },
            {
              "internalType": "enum UserRegistry.Status",
              "name": "status",
              "type": "uint8"
            },
            {
              "internalType": "uint256",
              "name": "createdAt",
              "type": "uint256"
            }
          ],
          "internalType": "struct UserRegistry.User",
          "name": "",
          "type": "tuple"
        }
      ],
      "stateMutability": "view",
      "type": "function"
    },
    {
      "inputs": [
        {
          "internalType": "address",
          "name": "_wallet",
          "type": "address"
        },
        {
          "internalType": "uint8",
          "name": "_role",
          "type": "uint8"
        }
      ],
      "name": "hasRole",
      "outputs": [
        {
          "internalType": "bool",
          "name": "",
          "type": "bool"
        }
      ],
      "stateMutability": "view",
      "type": "function"
    },
    {
      "inputs": [
        {
          "internalType": "address",
          "name": "_wallet",
          "type": "address"
        }
      ],
      "name": "isActive",
      "outputs": [
        {
          "internalType": "bool",
          "name": "",
          "type": "bool"
        }
      ],
      "stateMutability": "view",
      "type": "function"
    },
    {
      "inputs": [
        {
          "internalType": "address",
          "name": "_wallet",
          "type": "address"
        },
        {
          "internalType": "enum UserRegistry.Role",
          "name": "_role",
          "type": "uint8"
        }
      ],
      "name": "registerUser",
      "outputs": [],
      "stateMutability": "nonpayable",
      "type": "function"
    },
    {
      "inputs": [],
      "name": "rootAdmin",
      "outputs": [
        {
          "internalType": "address",
          "name": "",
          "type": "address"
        }
      ],
      "stateMutability": "view",
      "type": "function"
    },
    {
      "inputs": [
        {
          "internalType": "address",
          "name": "_wallet",
          "type": "address"
        },
        {
          "internalType": "enum UserRegistry.Role",
          "name": "_newRole",
          "type": "uint8"
        }
      ],
      "name": "updateUserRole",
      "outputs": [],
      "stateMutability": "nonpayable",
      "type": "function"
    },
    {
      "inputs": [
        {
          "internalType": "address",
          "name": "_wallet",
          "type": "address"
        },
        {
          "internalType": "enum UserRegistry.Status",
          "name": "_newStatus",
          "type": "uint8"
        }
      ],
      "name": "updateUserStatus",
      "outputs": [],
      "stateMutability": "nonpayable",
      "type": "function"
    }
  ],
  "bytecode": "0x608060405234801561001057600080fd5b5060008054336001600160a01b031991821681178355604080516080810182528281526020808201868152828401879052426060840152938652600190529320835181549384166001600160a01b03909116908117825591519092909183916001600160a81b03191617600160a01b8360068111156100915761009161011a565b021790555060408201518154829060ff60a81b1916600160a81b8360018111156100bd576100bd61011a565b0217905550606091909101516001909101556000336001600160a01b03167f02db13cdfca7c40ba2b7d5a070e8043fc4041665708d15c87bd55ede9bb6b8d860004260405161010d929190610130565b60405180910390a361015c565b634e487b7160e01b600052602160045260246000fd5b604081016002841061015257634e487b7160e01b600052602160045260246000fd5b9281526020015290565b610a348061016b6000396000f3fe608060405234801561001057600080fd5b506004361061007d5760003560e01c806395a8c58d1161005b57806395a8c58d146100e75780639e9fa0971461010a5780639f8a13d71461011d578063c291fe621461013057600080fd5b806358d642e8146100825780636f77926b146100b2578063931f0751146100d2575b600080fd5b600054610095906001600160a01b031681565b6040516001600160a01b0390911681526020015b60405180910390f35b6100c56100c0366004610833565b610143565b6040516100a99190610888565b6100e56100e03660046108ce565b610219565b005b6100fa6100f5366004610909565b610385565b60405190151581526020016100a9565b6100e561011836600461093b565b610406565b6100fa61012b366004610833565b61065e565b6100e561013e36600461093b565b6106c1565b61016f604080516080810190915260008082526020820190815260200160008152602001600081525090565b6001600160a01b0382811660009081526001602090815260409182902082516080810190935280549384168352919290830190600160a01b900460ff1660068111156101bd576101bd61084e565b60068111156101ce576101ce61084e565b81528154602090910190600160a81b900460ff1660018111156101f3576101f361084e565b60018111156102045761020461084e565b81526020016001820154815250509050919050565b600033600090815260016020526040902054600160a01b900460ff1660068111156102465761024661084e565b148061025c57506000546001600160a01b031633145b6102815760405162461bcd60e51b81526004016102789061096b565b60405180910390fd5b6001600160a01b03828116600090815260016020526040902054166102e85760405162461bcd60e51b815260206004820152601e60248201527f526f62757374726163653a2055736572206b686f6e6720746f6e2074616900006044820152606401610278565b6001600160a01b03821660009081526001602081905260409091208054600160a81b80820460ff169385939260ff60a81b19169190849081111561032e5761032e61084e565b0217905550336001600160a01b0316836001600160a01b03167fb6c5b83575457cb22483c10c8c541ed18341abdb3060bef0dce6c5be814d149483856040516103789291906109ad565b60405180910390a3505050565b6001600160a01b03821660009081526001602052604081205460ff80841691600160a01b90041660068111156103bd576103bd61084e565b60ff161480156103ff57506001600160a01b0383166000908152600160208190526040822054600160a81b900460ff16908111156103fd576103fd61084e565b145b9392505050565b600033600090815260016020526040902054600160a01b900460ff1660068111156104335761043361084e565b148061044957506000546001600160a01b031633145b6104655760405162461bcd60e51b81526004016102789061096b565b6001600160a01b0382166104c75760405162461bcd60e51b815260206004820152602360248201527f526f62757374726163653a2044696120636869207669206b686f6e6720686f70604482015262206c6560e81b6064820152608401610278565b6001600160a01b03828116600090815260016020526040902054161561052f5760405162461bcd60e51b815260206004820181905260248201527f526f62757374726163653a20546169206b686f616e20646120746f6e207461696044820152606401610278565b6040518060800160405280836001600160a01b0316815260200182600681111561055b5761055b61084e565b815260200160008152426020918201526001600160a01b03808516600090815260018352604090208351815492166001600160a01b0319831681178255928401519092909183916001600160a81b031990911617600160a01b8360068111156105c6576105c661084e565b021790555060408201518154829060ff60a81b1916600160a81b8360018111156105f2576105f261084e565b0217905550606082015181600101559050508060068111156106165761061661084e565b826001600160a01b03167f02db13cdfca7c40ba2b7d5a070e8043fc4041665708d15c87bd55ede9bb6b8d86000426040516106529291906109c8565b60405180910390a35050565b6001600160a01b03818116600090815260016020526040812054909116158015906106bb57506001600160a01b0382166000908152600160208190526040822054600160a81b900460ff16908111156106b9576106b961084e565b145b92915050565b600033600090815260016020526040902054600160a01b900460ff1660068111156106ee576106ee61084e565b148061070457506000546001600160a01b031633145b6107205760405162461bcd60e51b81526004016102789061096b565b6001600160a01b03828116600090815260016020526040902054166107875760405162461bcd60e51b815260206004820152601e60248201527f526f62757374726163653a2055736572206b686f6e6720746f6e2074616900006044820152606401610278565b6001600160a01b03821660009081526001602052604090208054600160a01b80820460ff16928492909160ff60a01b19909116908360068111156107cd576107cd61084e565b0217905550336001600160a01b0316836001600160a01b03167f9aebd01cdf037f450af9b51570e16317b26feaf5fb81a8229143ec20b000e7af83856040516103789291906109e3565b80356001600160a01b038116811461082e57600080fd5b919050565b60006020828403121561084557600080fd5b6103ff82610817565b634e487b7160e01b600052602160045260246000fd5b600781106108745761087461084e565b9052565b600281106108745761087461084e565b81516001600160a01b0316815260208083015160808301916108ac90840182610864565b5060408301516108bf6040840182610878565b50606092830151919092015290565b600080604083850312156108e157600080fd5b6108ea83610817565b91506020830135600281106108fe57600080fd5b809150509250929050565b6000806040838503121561091c57600080fd5b61092583610817565b9150602083013560ff811681146108fe57600080fd5b6000806040838503121561094e57600080fd5b61095783610817565b91506020830135600781106108fe57600080fd5b60208082526022908201527f526f62757374726163653a204368692041444d494e206d6f6920636f2071757960408201526132b760f11b606082015260800190565b604081016109bb8285610878565b6103ff6020830184610878565b604081016109d68285610878565b8260208301529392505050565b604081016109f18285610864565b6103ff602083018461086456fea2646970667358221220137b25cd87b51b7c80405359ae1e09f7dc81b537a11c346b4269c2856a772db764736f6c63430008140033",
  "linkReferences": {},
  "deployedLinkReferences": {}
}