{
  "_format": "hh-sol-artifact-1",
  "contractName": "BatchEventRegistry",
  "sourceName": "contracts/BatchEventRegistry.sol",
  "abi": [
    {
      "inputs": [
        {
          "internalType": "address",
          "name": "_batchRegistry",
          "type": "address"
        }
      ],
      "stateMutability": "nonpayable",
      "type": "constructor"
    },
    {
      "anonymous": false,
      "inputs": [
        {
          "indexed": false,
          "internalType": "string",
          "name": "batchId",
          "type": "string"
        },
        {
          "indexed": false,
          "internalType": "enum BatchEventRegistry.ActionType",
          "name": "action",
          "type": "uint8"
        },
        {
          "indexed": true,
          "internalType": "address",
          "name": "actor",
          "type": "address"
        },
        {
          "indexed": false,
          "internalType": "string",
          "name": "ipfsCid",
          "type": "string"
        }
      ],
      "name": "BatchEventAdded",
      "type": "event"
    },
    {
      "inputs": [
        {
          "internalType": "string",
          "name": "_batchId",
          "type": "string"
        },
        {
          "internalType": "enum BatchEventRegistry.ActionType",
          "name": "_action",
          "type": "uint8"
        },
        {
          "internalType": "string",
          "name": "_ipfsCid",
          "type": "string"
        },
        {
          "internalType": "bytes32",
          "name": "_eventHash",
          "type": "bytes32"
        }
      ],
      "name": "addBatchEvent",
      "outputs": [],
      "stateMutability": "nonpayable",
      "type": "function"
    },
    {
      "inputs": [],
      "name": "batchRegistryAddress",
      "outputs": [
        {
          "internalType": "address",
          "name": "",
          "type": "address"
        }
      ],
      "stateMutability": "view",
      "type": "function"
    },
    {
      "inputs": [
        {
          "internalType": "string",
          "name": "_batchId",
          "type": "string"
        }
      ],
      "name": "getBatchEvents",
      "outputs": [
        {
          "components": [
            {
              "internalType": "string",
              "name": "batchId",
              "type": "string"
            },
            {
              "internalType": "enum BatchEventRegistry.ActionType",
              "name": "action",
              "type": "uint8"
            },
            {
              "internalType": "address",
              "name": "actor",
              "type": "address"
            },
            {
              "internalType": "string",
              "name": "ipfsCid",
              "type": "string"
            },
            {
              "internalType": "bytes32",
              "name": "eventHash",
              "type": "bytes32"
            },
            {
              "internalType": "uint256",
              "name": "timestamp",
              "type": "uint256"
            }
          ],
          "internalType": "struct BatchEventRegistry.BatchEvent[]",
          "name": "",
          "type": "tuple[]"
        }
      ],
      "stateMutability": "view",
      "type": "function"
    },
    {
      "inputs": [
        {
          "internalType": "string",
          "name": "_batchId",
          "type": "string"
        },
        {
          "internalType": "uint256",
          "name": "_index",
          "type": "uint256"
        },
        {
          "internalType": "bytes32",
          "name": "_checkHash",
          "type": "bytes32"
        }
      ],
      "name": "verifyEventHash",
      "outputs": [
        {
          "internalType": "bool",
          "name": "",
          "type": "bool"
        }
      ],
      "stateMutability": "view",
      "type": "function"
    }
  ],
  "bytecode": "0x608060405234801561001057600080fd5b50604051610a7c380380610a7c83398101604081905261002f91610054565b600180546001600160a01b0319166001600160a01b0392909216919091179055610084565b60006020828403121561006657600080fd5b81516001600160a01b038116811461007d57600080fd5b9392505050565b6109e9806100936000396000f3fe608060405234801561001057600080fd5b506004361061004c5760003560e01c80633c4fe11e14610051578063a022da5114610079578063afc744c7146100a4578063ec1f87ea146100c4575b600080fd5b61006461005f3660046105a3565b6100d9565b60405190151581526020015b60405180910390f35b60015461008c906001600160a01b031681565b6040516001600160a01b039091168152602001610070565b6100b76100b23660046105f1565b6101a4565b60405161007091906106b6565b6100d76100d2366004610778565b6103a7565b005b600080846040516100ea91906107fc565b9081526040519081900360200190205483106101585760405162461bcd60e51b8152602060048201526024808201527f496e6465782076756f74207175612067696f692068616e2066696c65206e686160448201526374206b7960e01b606482015260840160405180910390fd5b8160008560405161016991906107fc565b9081526020016040518091039020848154811061018857610188610818565b9060005260206000209060050201600301541490509392505050565b60606000826040516101b691906107fc565b9081526020016040518091039020805480602002602001604051908101604052809291908181526020016000905b8282101561039c57838290600052602060002090600502016040518060c00160405290816000820180546102179061082e565b80601f01602080910402602001604051908101604052809291908181526020018280546102439061082e565b80156102905780601f1061026557610100808354040283529160200191610290565b820191906000526020600020905b81548152906001019060200180831161027357829003601f168201915b5050509183525050600182015460209091019060ff1660098111156102b7576102b761067e565b60098111156102c8576102c861067e565b8152600182015461010090046001600160a01b031660208201526002820180546040909201916102f79061082e565b80601f01602080910402602001604051908101604052809291908181526020018280546103239061082e565b80156103705780601f1061034557610100808354040283529160200191610370565b820191906000526020600020905b81548152906001019060200180831161035357829003601f168201915b5050505050815260200160038201548152602001600482015481525050815260200190600101906101e4565b505050509050919050565b6000846040516103b791906107fc565b90815260200160405180910390206040518060c001604052808681526020018560098111156103e8576103e861067e565b815233602080830191909152604082018690526060820185905242608090920191909152825460018101845560009384529220815191926005020190819061043090826108b7565b50602082015160018083018054909160ff19909116908360098111156104585761045861067e565b021790555060408201516001820180546001600160a01b0390921661010002610100600160a81b03199092169190911790556060820151600282019061049e90826108b7565b506080820151816003015560a082015181600401555050336001600160a01b03167fb4c25b31b98530fa1bdb66b191b6dbfb8ba6190445c90516bae5adf01b5a9ff78585856040516104f293929190610977565b60405180910390a250505050565b634e487b7160e01b600052604160045260246000fd5b600082601f83011261052757600080fd5b813567ffffffffffffffff8082111561054257610542610500565b604051601f8301601f19908116603f0116810190828211818310171561056a5761056a610500565b8160405283815286602085880101111561058357600080fd5b836020870160208301376000602085830101528094505050505092915050565b6000806000606084860312156105b857600080fd5b833567ffffffffffffffff8111156105cf57600080fd5b6105db86828701610516565b9660208601359650604090950135949350505050565b60006020828403121561060357600080fd5b813567ffffffffffffffff81111561061a57600080fd5b61062684828501610516565b949350505050565b60005b83811015610649578181015183820152602001610631565b50506000910152565b6000815180845261066a81602086016020860161062e565b601f01601f19169290920160200192915050565b634e487b7160e01b600052602160045260246000fd5b600a81106106b257634e487b7160e01b600052602160045260246000fd5b9052565b60006020808301818452808551808352604092508286019150828160051b87010184880160005b8381101561076a57603f19898403018552815160c0815181865261070382870182610652565b915050888201516107168a870182610694565b50818801516001600160a01b0316858901526060808301518683038288015261073f8382610652565b6080858101519089015260a094850151949097019390935250505093860193908601906001016106dd565b509098975050505050505050565b6000806000806080858703121561078e57600080fd5b843567ffffffffffffffff808211156107a657600080fd5b6107b288838901610516565b955060208701359150600a82106107c857600080fd5b909350604086013590808211156107de57600080fd5b506107eb87828801610516565b949793965093946060013593505050565b6000825161080e81846020870161062e565b9190910192915050565b634e487b7160e01b600052603260045260246000fd5b600181811c9082168061084257607f821691505b60208210810361086257634e487b7160e01b600052602260045260246000fd5b50919050565b601f8211156108b257600081815260208120601f850160051c8101602086101561088f5750805b601f850160051c820191505b818110156108ae5782815560010161089b565b5050505b505050565b815167ffffffffffffffff8111156108d1576108d1610500565b6108e5816108df845461082e565b84610868565b602080601f83116001811461091a57600084156109025750858301515b600019600386901b1c1916600185901b1785556108ae565b600085815260208120601f198616915b828110156109495788860151825594840194600190910190840161092a565b50858210156109675787850151600019600388901b60f8161c191681555b5050505050600190811b01905550565b60608152600061098a6060830186610652565b6109976020840186610694565b82810360408401526109a98185610652565b969550505050505056fea26469706673582212200574bb88d1b4e2adcff534ff165f4438a6d24a1952b514623790879d7e3d7c6f64736f6c63430008140033",
  "linkReferences": {},
  "deployedLinkReferences": {}
}